{
	"test1.sol": {
		"HelloWorld": {
			"abi": [
				{
					"inputs": [
						{
							"internalType": "uint256",
							"name": "_id",
							"type": "uint256"
						}
					],
					"name": "sayHello",
					"outputs": [
						{
							"internalType": "string",
							"name": "",
							"type": "string"
						}
					],
					"stateMutability": "view",
					"type": "function"
				},
				{
					"inputs": [
						{
							"internalType": "string",
							"name": "newString",
							"type": "string"
						},
						{
							"internalType": "uint256",
							"name": "_id",
							"type": "uint256"
						}
					],
					"name": "setHelloWorld",
					"outputs": [],
					"stateMutability": "nonpayable",
					"type": "function"
				}
			],
			"devdoc": {
				"kind": "dev",
				"methods": {},
				"version": 1
			},
			"evm": {
				"assembly": "    /* \"test1.sol\":118:1181  contract HelloWorld{... */\n  mstore(0x40, 0x80)\n    /* \"test1.sol\":144:173  string strVar = \"hello world\" */\n  mload(0x40)\n  dup1\n  0x40\n  add\n  0x40\n  mstore\n  dup1\n  0x0b\n  dup2\n  mstore\n  0x20\n  add\n  0x68656c6c6f20776f726c64000000000000000000000000000000000000000000\n  dup2\n  mstore\n  pop\n  0x00\n  swap1\n  dup2\n  tag_1\n  swap2\n  swap1\n  tag_2\n  jump\t// in\ntag_1:\n  pop\n    /* \"test1.sol\":118:1181  contract HelloWorld{... */\n  callvalue\n  dup1\n  iszero\n  tag_3\n  jumpi\n  0x00\n  dup1\n  revert\ntag_3:\n  pop\n  jump(tag_4)\n    /* \"#utility.yul\":7:106   */\ntag_5:\n    /* \"#utility.yul\":59:65   */\n  0x00\n    /* \"#utility.yul\":93:98   */\n  dup2\n    /* \"#utility.yul\":87:99   */\n  mload\n    /* \"#utility.yul\":77:99   */\n  swap1\n  pop\n    /* \"#utility.yul\":7:106   */\n  swap2\n  swap1\n  pop\n  jump\t// out\n    /* \"#utility.yul\":112:292   */\ntag_6:\n    /* \"#utility.yul\":160:237   */\n  0x4e487b7100000000000000000000000000000000000000000000000000000000\n    /* \"#utility.yul\":157:158   */\n  0x00\n    /* \"#utility.yul\":150:238   */\n  mstore\n    /* \"#utility.yul\":257:261   */\n  0x41\n    /* \"#utility.yul\":254:255   */\n  0x04\n    /* \"#utility.yul\":247:262   */\n  mstore\n    /* \"#utility.yul\":281:285   */\n  0x24\n    /* \"#utility.yul\":278:279   */\n  0x00\n    /* \"#utility.yul\":271:286   */\n  revert\n    /* \"#utility.yul\":298:478   */\ntag_7:\n    /* \"#utility.yul\":346:423   */\n  0x4e487b7100000000000000000000000000000000000000000000000000000000\n    /* \"#utility.yul\":343:344   */\n  0x00\n    /* \"#utility.yul\":336:424   */\n  mstore\n    /* \"#utility.yul\":443:447   */\n  0x22\n    /* \"#utility.yul\":440:441   */\n  0x04\n    /* \"#utility.yul\":433:448   */\n  mstore\n    /* \"#utility.yul\":467:471   */\n  0x24\n    /* \"#utility.yul\":464:465   */\n  0x00\n    /* \"#utility.yul\":457:472   */\n  revert\n    /* \"#utility.yul\":484:804   */\ntag_8:\n    /* \"#utility.yul\":528:534   */\n  0x00\n    /* \"#utility.yul\":565:566   */\n  0x02\n    /* \"#utility.yul\":559:563   */\n  dup3\n    /* \"#utility.yul\":555:567   */\n  div\n    /* \"#utility.yul\":545:567   */\n  swap1\n  pop\n    /* \"#utility.yul\":612:613   */\n  0x01\n    /* \"#utility.yul\":606:610   */\n  dup3\n    /* \"#utility.yul\":602:614   */\n  and\n    /* \"#utility.yul\":633:651   */\n  dup1\n    /* \"#utility.yul\":623:704   */\n  tag_30\n  jumpi\n    /* \"#utility.yul\":689:693   */\n  0x7f\n    /* \"#utility.yul\":681:687   */\n  dup3\n    /* \"#utility.yul\":677:694   */\n  and\n    /* \"#utility.yul\":667:694   */\n  swap2\n  pop\n    /* \"#utility.yul\":623:704   */\ntag_30:\n    /* \"#utility.yul\":751:753   */\n  0x20\n    /* \"#utility.yul\":743:749   */\n  dup3\n    /* \"#utility.yul\":740:754   */\n  lt\n    /* \"#utility.yul\":720:738   */\n  dup2\n    /* \"#utility.yul\":717:755   */\n  sub\n    /* \"#utility.yul\":714:798   */\n  tag_31\n  jumpi\n    /* \"#utility.yul\":770:788   */\n  tag_32\n  tag_7\n  jump\t// in\ntag_32:\n    /* \"#utility.yul\":714:798   */\ntag_31:\n    /* \"#utility.yul\":535:804   */\n  pop\n    /* \"#utility.yul\":484:804   */\n  swap2\n  swap1\n  pop\n  jump\t// out\n    /* \"#utility.yul\":810:951   */\ntag_9:\n    /* \"#utility.yul\":859:863   */\n  0x00\n    /* \"#utility.yul\":882:885   */\n  dup2\n    /* \"#utility.yul\":874:885   */\n  swap1\n  pop\n    /* \"#utility.yul\":905:908   */\n  dup2\n    /* \"#utility.yul\":902:903   */\n  0x00\n    /* \"#utility.yul\":895:909   */\n  mstore\n    /* \"#utility.yul\":939:943   */\n  0x20\n    /* \"#utility.yul\":936:937   */\n  0x00\n    /* \"#utility.yul\":926:944   */\n  keccak256\n    /* \"#utility.yul\":918:944   */\n  swap1\n  pop\n    /* \"#utility.yul\":810:951   */\n  swap2\n  swap1\n  pop\n  jump\t// out\n    /* \"#utility.yul\":957:1050   */\ntag_10:\n    /* \"#utility.yul\":994:1000   */\n  0x00\n    /* \"#utility.yul\":1041:1043   */\n  0x20\n    /* \"#utility.yul\":1036:1038   */\n  0x1f\n    /* \"#utility.yul\":1029:1034   */\n  dup4\n    /* \"#utility.yul\":1025:1039   */\n  add\n    /* \"#utility.yul\":1021:1044   */\n  div\n    /* \"#utility.yul\":1011:1044   */\n  swap1\n  pop\n    /* \"#utility.yul\":957:1050   */\n  swap2\n  swap1\n  pop\n  jump\t// out\n    /* \"#utility.yul\":1056:1163   */\ntag_11:\n    /* \"#utility.yul\":1100:1108   */\n  0x00\n    /* \"#utility.yul\":1150:1155   */\n  dup3\n    /* \"#utility.yul\":1144:1148   */\n  dup3\n    /* \"#utility.yul\":1140:1156   */\n  shl\n    /* \"#utility.yul\":1119:1156   */\n  swap1\n  pop\n    /* \"#utility.yul\":1056:1163   */\n  swap3\n  swap2\n  pop\n  pop\n  jump\t// out\n    /* \"#utility.yul\":1169:1562   */\ntag_12:\n    /* \"#utility.yul\":1238:1244   */\n  0x00\n    /* \"#utility.yul\":1288:1289   */\n  0x08\n    /* \"#utility.yul\":1276:1286   */\n  dup4\n    /* \"#utility.yul\":1272:1290   */\n  mul\n    /* \"#utility.yul\":1311:1408   */\n  tag_37\n    /* \"#utility.yul\":1341:1407   */\n  0xffffffffffffffffffffffffffffffffffffffffffffffffffffffffffffffff\n    /* \"#utility.yul\":1330:1339   */\n  dup3\n    /* \"#utility.yul\":1311:1408   */\n  tag_11\n  jump\t// in\ntag_37:\n    /* \"#utility.yul\":1429:1468   */\n  tag_38\n    /* \"#utility.yul\":1459:1467   */\n  dup7\n    /* \"#utility.yul\":1448:1457   */\n  dup4\n    /* \"#utility.yul\":1429:1468   */\n  tag_11\n  jump\t// in\ntag_38:\n    /* \"#utility.yul\":1417:1468   */\n  swap6\n  pop\n    /* \"#utility.yul\":1501:1505   */\n  dup1\n    /* \"#utility.yul\":1497:1506   */\n  not\n    /* \"#utility.yul\":1490:1495   */\n  dup5\n    /* \"#utility.yul\":1486:1507   */\n  and\n    /* \"#utility.yul\":1477:1507   */\n  swap4\n  pop\n    /* \"#utility.yul\":1550:1554   */\n  dup1\n    /* \"#utility.yul\":1540:1548   */\n  dup7\n    /* \"#utility.yul\":1536:1555   */\n  and\n    /* \"#utility.yul\":1529:1534   */\n  dup5\n    /* \"#utility.yul\":1526:1556   */\n  or\n    /* \"#utility.yul\":1516:1556   */\n  swap3\n  pop\n    /* \"#utility.yul\":1245:1562   */\n  pop\n  pop\n    /* \"#utility.yul\":1169:1562   */\n  swap4\n  swap3\n  pop\n  pop\n  pop\n  jump\t// out\n    /* \"#utility.yul\":1568:1645   */\ntag_13:\n    /* \"#utility.yul\":1605:1612   */\n  0x00\n    /* \"#utility.yul\":1634:1639   */\n  dup2\n    /* \"#utility.yul\":1623:1639   */\n  swap1\n  pop\n    /* \"#utility.yul\":1568:1645   */\n  swap2\n  swap1\n  pop\n  jump\t// out\n    /* \"#utility.yul\":1651:1711   */\ntag_14:\n    /* \"#utility.yul\":1679:1682   */\n  0x00\n    /* \"#utility.yul\":1700:1705   */\n  dup2\n    /* \"#utility.yul\":1693:1705   */\n  swap1\n  pop\n    /* \"#utility.yul\":1651:1711   */\n  swap2\n  swap1\n  pop\n  jump\t// out\n    /* \"#utility.yul\":1717:1859   */\ntag_15:\n    /* \"#utility.yul\":1767:1776   */\n  0x00\n    /* \"#utility.yul\":1800:1853   */\n  tag_42\n    /* \"#utility.yul\":1818:1852   */\n  tag_43\n    /* \"#utility.yul\":1827:1851   */\n  tag_44\n    /* \"#utility.yul\":1845:1850   */\n  dup5\n    /* \"#utility.yul\":1827:1851   */\n  tag_13\n  jump\t// in\ntag_44:\n    /* \"#utility.yul\":1818:1852   */\n  tag_14\n  jump\t// in\ntag_43:\n    /* \"#utility.yul\":1800:1853   */\n  tag_13\n  jump\t// in\ntag_42:\n    /* \"#utility.yul\":1787:1853   */\n  swap1\n  pop\n    /* \"#utility.yul\":1717:1859   */\n  swap2\n  swap1\n  pop\n  jump\t// out\n    /* \"#utility.yul\":1865:1940   */\ntag_16:\n    /* \"#utility.yul\":1908:1911   */\n  0x00\n    /* \"#utility.yul\":1929:1934   */\n  dup2\n    /* \"#utility.yul\":1922:1934   */\n  swap1\n  pop\n    /* \"#utility.yul\":1865:1940   */\n  swap2\n  swap1\n  pop\n  jump\t// out\n    /* \"#utility.yul\":1946:2215   */\ntag_17:\n    /* \"#utility.yul\":2056:2095   */\n  tag_47\n    /* \"#utility.yul\":2087:2094   */\n  dup4\n    /* \"#utility.yul\":2056:2095   */\n  tag_15\n  jump\t// in\ntag_47:\n    /* \"#utility.yul\":2117:2208   */\n  tag_48\n    /* \"#utility.yul\":2166:2207   */\n  tag_49\n    /* \"#utility.yul\":2190:2206   */\n  dup3\n    /* \"#utility.yul\":2166:2207   */\n  tag_16\n  jump\t// in\ntag_49:\n    /* \"#utility.yul\":2158:2164   */\n  dup5\n    /* \"#utility.yul\":2151:2155   */\n  dup5\n    /* \"#utility.yul\":2145:2156   */\n  sload\n    /* \"#utility.yul\":2117:2208   */\n  tag_12\n  jump\t// in\ntag_48:\n    /* \"#utility.yul\":2111:2115   */\n  dup3\n    /* \"#utility.yul\":2104:2209   */\n  sstore\n    /* \"#utility.yul\":2022:2215   */\n  pop\n    /* \"#utility.yul\":1946:2215   */\n  pop\n  pop\n  pop\n  jump\t// out\n    /* \"#utility.yul\":2221:2294   */\ntag_18:\n    /* \"#utility.yul\":2266:2269   */\n  0x00\n    /* \"#utility.yul\":2221:2294   */\n  swap1\n  jump\t// out\n    /* \"#utility.yul\":2300:2489   */\ntag_19:\n    /* \"#utility.yul\":2377:2409   */\n  tag_52\n  tag_18\n  jump\t// in\ntag_52:\n    /* \"#utility.yul\":2418:2483   */\n  tag_53\n    /* \"#utility.yul\":2476:2482   */\n  dup2\n    /* \"#utility.yul\":2468:2474   */\n  dup5\n    /* \"#utility.yul\":2462:2466   */\n  dup5\n    /* \"#utility.yul\":2418:2483   */\n  tag_17\n  jump\t// in\ntag_53:\n    /* \"#utility.yul\":2353:2489   */\n  pop\n    /* \"#utility.yul\":2300:2489   */\n  pop\n  pop\n  jump\t// out\n    /* \"#utility.yul\":2495:2681   */\ntag_20:\n    /* \"#utility.yul\":2555:2675   */\ntag_55:\n    /* \"#utility.yul\":2572:2575   */\n  dup2\n    /* \"#utility.yul\":2565:2570   */\n  dup2\n    /* \"#utility.yul\":2562:2576   */\n  lt\n    /* \"#utility.yul\":2555:2675   */\n  iszero\n  tag_57\n  jumpi\n    /* \"#utility.yul\":2626:2665   */\n  tag_58\n    /* \"#utility.yul\":2663:2664   */\n  0x00\n    /* \"#utility.yul\":2656:2661   */\n  dup3\n    /* \"#utility.yul\":2626:2665   */\n  tag_19\n  jump\t// in\ntag_58:\n    /* \"#utility.yul\":2599:2600   */\n  0x01\n    /* \"#utility.yul\":2592:2597   */\n  dup2\n    /* \"#utility.yul\":2588:2601   */\n  add\n    /* \"#utility.yul\":2579:2601   */\n  swap1\n  pop\n    /* \"#utility.yul\":2555:2675   */\n  jump(tag_55)\ntag_57:\n    /* \"#utility.yul\":2495:2681   */\n  pop\n  pop\n  jump\t// out\n    /* \"#utility.yul\":2687:3230   */\ntag_21:\n    /* \"#utility.yul\":2788:2790   */\n  0x1f\n    /* \"#utility.yul\":2783:2786   */\n  dup3\n    /* \"#utility.yul\":2780:2791   */\n  gt\n    /* \"#utility.yul\":2777:3223   */\n  iszero\n  tag_60\n  jumpi\n    /* \"#utility.yul\":2822:2860   */\n  tag_61\n    /* \"#utility.yul\":2854:2859   */\n  dup2\n    /* \"#utility.yul\":2822:2860   */\n  tag_9\n  jump\t// in\ntag_61:\n    /* \"#utility.yul\":2906:2935   */\n  tag_62\n    /* \"#utility.yul\":2924:2934   */\n  dup5\n    /* \"#utility.yul\":2906:2935   */\n  tag_10\n  jump\t// in\ntag_62:\n    /* \"#utility.yul\":2896:2904   */\n  dup2\n    /* \"#utility.yul\":2892:2936   */\n  add\n    /* \"#utility.yul\":3089:3091   */\n  0x20\n    /* \"#utility.yul\":3077:3087   */\n  dup6\n    /* \"#utility.yul\":3074:3092   */\n  lt\n    /* \"#utility.yul\":3071:3120   */\n  iszero\n  tag_63\n  jumpi\n    /* \"#utility.yul\":3110:3118   */\n  dup2\n    /* \"#utility.yul\":3095:3118   */\n  swap1\n  pop\n    /* \"#utility.yul\":3071:3120   */\ntag_63:\n    /* \"#utility.yul\":3133:3213   */\n  tag_64\n    /* \"#utility.yul\":3189:3211   */\n  tag_65\n    /* \"#utility.yul\":3207:3210   */\n  dup6\n    /* \"#utility.yul\":3189:3211   */\n  tag_10\n  jump\t// in\ntag_65:\n    /* \"#utility.yul\":3179:3187   */\n  dup4\n    /* \"#utility.yul\":3175:3212   */\n  add\n    /* \"#utility.yul\":3162:3173   */\n  dup3\n    /* \"#utility.yul\":3133:3213   */\n  tag_20\n  jump\t// in\ntag_64:\n    /* \"#utility.yul\":2792:3223   */\n  pop\n  pop\n    /* \"#utility.yul\":2777:3223   */\ntag_60:\n    /* \"#utility.yul\":2687:3230   */\n  pop\n  pop\n  pop\n  jump\t// out\n    /* \"#utility.yul\":3236:3353   */\ntag_22:\n    /* \"#utility.yul\":3290:3298   */\n  0x00\n    /* \"#utility.yul\":3340:3345   */\n  dup3\n    /* \"#utility.yul\":3334:3338   */\n  dup3\n    /* \"#utility.yul\":3330:3346   */\n  shr\n    /* \"#utility.yul\":3309:3346   */\n  swap1\n  pop\n    /* \"#utility.yul\":3236:3353   */\n  swap3\n  swap2\n  pop\n  pop\n  jump\t// out\n    /* \"#utility.yul\":3359:3528   */\ntag_23:\n    /* \"#utility.yul\":3403:3409   */\n  0x00\n    /* \"#utility.yul\":3436:3487   */\n  tag_68\n    /* \"#utility.yul\":3484:3485   */\n  0x00\n    /* \"#utility.yul\":3480:3486   */\n  not\n    /* \"#utility.yul\":3472:3477   */\n  dup5\n    /* \"#utility.yul\":3469:3470   */\n  0x08\n    /* \"#utility.yul\":3465:3478   */\n  mul\n    /* \"#utility.yul\":3436:3487   */\n  tag_22\n  jump\t// in\ntag_68:\n    /* \"#utility.yul\":3432:3488   */\n  not\n    /* \"#utility.yul\":3517:3521   */\n  dup1\n    /* \"#utility.yul\":3511:3515   */\n  dup4\n    /* \"#utility.yul\":3507:3522   */\n  and\n    /* \"#utility.yul\":3497:3522   */\n  swap2\n  pop\n    /* \"#utility.yul\":3410:3528   */\n  pop\n    /* \"#utility.yul\":3359:3528   */\n  swap3\n  swap2\n  pop\n  pop\n  jump\t// out\n    /* \"#utility.yul\":3533:3828   */\ntag_24:\n    /* \"#utility.yul\":3609:3613   */\n  0x00\n    /* \"#utility.yul\":3755:3784   */\n  tag_70\n    /* \"#utility.yul\":3780:3783   */\n  dup4\n    /* \"#utility.yul\":3774:3778   */\n  dup4\n    /* \"#utility.yul\":3755:3784   */\n  tag_23\n  jump\t// in\ntag_70:\n    /* \"#utility.yul\":3747:3784   */\n  swap2\n  pop\n    /* \"#utility.yul\":3817:3820   */\n  dup3\n    /* \"#utility.yul\":3814:3815   */\n  0x02\n    /* \"#utility.yul\":3810:3821   */\n  mul\n    /* \"#utility.yul\":3804:3808   */\n  dup3\n    /* \"#utility.yul\":3801:3822   */\n  or\n    /* \"#utility.yul\":3793:3822   */\n  swap1\n  pop\n    /* \"#utility.yul\":3533:3828   */\n  swap3\n  swap2\n  pop\n  pop\n  jump\t// out\n    /* \"#utility.yul\":3833:5228   */\ntag_2:\n    /* \"#utility.yul\":3950:3987   */\n  tag_72\n    /* \"#utility.yul\":3983:3986   */\n  dup3\n    /* \"#utility.yul\":3950:3987   */\n  tag_5\n  jump\t// in\ntag_72:\n    /* \"#utility.yul\":4052:4070   */\n  0xffffffffffffffff\n    /* \"#utility.yul\":4044:4050   */\n  dup2\n    /* \"#utility.yul\":4041:4071   */\n  gt\n    /* \"#utility.yul\":4038:4094   */\n  iszero\n  tag_73\n  jumpi\n    /* \"#utility.yul\":4074:4092   */\n  tag_74\n  tag_6\n  jump\t// in\ntag_74:\n    /* \"#utility.yul\":4038:4094   */\ntag_73:\n    /* \"#utility.yul\":4118:4156   */\n  tag_75\n    /* \"#utility.yul\":4150:4154   */\n  dup3\n    /* \"#utility.yul\":4144:4155   */\n  sload\n    /* \"#utility.yul\":4118:4156   */\n  tag_8\n  jump\t// in\ntag_75:\n    /* \"#utility.yul\":4203:4270   */\n  tag_76\n    /* \"#utility.yul\":4263:4269   */\n  dup3\n    /* \"#utility.yul\":4255:4261   */\n  dup3\n    /* \"#utility.yul\":4249:4253   */\n  dup6\n    /* \"#utility.yul\":4203:4270   */\n  tag_21\n  jump\t// in\ntag_76:\n    /* \"#utility.yul\":4297:4298   */\n  0x00\n    /* \"#utility.yul\":4321:4325   */\n  0x20\n    /* \"#utility.yul\":4308:4325   */\n  swap1\n  pop\n    /* \"#utility.yul\":4353:4355   */\n  0x1f\n    /* \"#utility.yul\":4345:4351   */\n  dup4\n    /* \"#utility.yul\":4342:4356   */\n  gt\n    /* \"#utility.yul\":4370:4371   */\n  0x01\n    /* \"#utility.yul\":4365:4983   */\n  dup2\n  eq\n  tag_78\n  jumpi\n    /* \"#utility.yul\":5027:5028   */\n  0x00\n    /* \"#utility.yul\":5044:5050   */\n  dup5\n    /* \"#utility.yul\":5041:5118   */\n  iszero\n  tag_79\n  jumpi\n    /* \"#utility.yul\":5093:5102   */\n  dup3\n    /* \"#utility.yul\":5088:5091   */\n  dup8\n    /* \"#utility.yul\":5084:5103   */\n  add\n    /* \"#utility.yul\":5078:5104   */\n  mload\n    /* \"#utility.yul\":5069:5104   */\n  swap1\n  pop\n    /* \"#utility.yul\":5041:5118   */\ntag_79:\n    /* \"#utility.yul\":5144:5211   */\n  tag_80\n    /* \"#utility.yul\":5204:5210   */\n  dup6\n    /* \"#utility.yul\":5197:5202   */\n  dup3\n    /* \"#utility.yul\":5144:5211   */\n  tag_24\n  jump\t// in\ntag_80:\n    /* \"#utility.yul\":5138:5142   */\n  dup7\n    /* \"#utility.yul\":5131:5212   */\n  sstore\n    /* \"#utility.yul\":5000:5222   */\n  pop\n    /* \"#utility.yul\":4335:5222   */\n  jump(tag_77)\n    /* \"#utility.yul\":4365:4983   */\ntag_78:\n    /* \"#utility.yul\":4417:4421   */\n  0x1f\n    /* \"#utility.yul\":4413:4422   */\n  not\n    /* \"#utility.yul\":4405:4411   */\n  dup5\n    /* \"#utility.yul\":4401:4423   */\n  and\n    /* \"#utility.yul\":4451:4488   */\n  tag_81\n    /* \"#utility.yul\":4483:4487   */\n  dup7\n    /* \"#utility.yul\":4451:4488   */\n  tag_9\n  jump\t// in\ntag_81:\n    /* \"#utility.yul\":4510:4511   */\n  0x00\n    /* \"#utility.yul\":4524:4732   */\ntag_82:\n    /* \"#utility.yul\":4538:4545   */\n  dup3\n    /* \"#utility.yul\":4535:4536   */\n  dup2\n    /* \"#utility.yul\":4532:4546   */\n  lt\n    /* \"#utility.yul\":4524:4732   */\n  iszero\n  tag_84\n  jumpi\n    /* \"#utility.yul\":4617:4626   */\n  dup5\n    /* \"#utility.yul\":4612:4615   */\n  dup10\n    /* \"#utility.yul\":4608:4627   */\n  add\n    /* \"#utility.yul\":4602:4628   */\n  mload\n    /* \"#utility.yul\":4594:4600   */\n  dup3\n    /* \"#utility.yul\":4587:4629   */\n  sstore\n    /* \"#utility.yul\":4668:4669   */\n  0x01\n    /* \"#utility.yul\":4660:4666   */\n  dup3\n    /* \"#utility.yul\":4656:4670   */\n  add\n    /* \"#utility.yul\":4646:4670   */\n  swap2\n  pop\n    /* \"#utility.yul\":4715:4717   */\n  0x20\n    /* \"#utility.yul\":4704:4713   */\n  dup6\n    /* \"#utility.yul\":4700:4718   */\n  add\n    /* \"#utility.yul\":4687:4718   */\n  swap5\n  pop\n    /* \"#utility.yul\":4561:4565   */\n  0x20\n    /* \"#utility.yul\":4558:4559   */\n  dup2\n    /* \"#utility.yul\":4554:4566   */\n  add\n    /* \"#utility.yul\":4549:4566   */\n  swap1\n  pop\n    /* \"#utility.yul\":4524:4732   */\n  jump(tag_82)\ntag_84:\n    /* \"#utility.yul\":4760:4766   */\n  dup7\n    /* \"#utility.yul\":4751:4758   */\n  dup4\n    /* \"#utility.yul\":4748:4767   */\n  lt\n    /* \"#utility.yul\":4745:4924   */\n  iszero\n  tag_85\n  jumpi\n    /* \"#utility.yul\":4818:4827   */\n  dup5\n    /* \"#utility.yul\":4813:4816   */\n  dup10\n    /* \"#utility.yul\":4809:4828   */\n  add\n    /* \"#utility.yul\":4803:4829   */\n  mload\n    /* \"#utility.yul\":4861:4909   */\n  tag_86\n    /* \"#utility.yul\":4903:4907   */\n  0x1f\n    /* \"#utility.yul\":4895:4901   */\n  dup10\n    /* \"#utility.yul\":4891:4908   */\n  and\n    /* \"#utility.yul\":4880:4889   */\n  dup3\n    /* \"#utility.yul\":4861:4909   */\n  tag_23\n  jump\t// in\ntag_86:\n    /* \"#utility.yul\":4853:4859   */\n  dup4\n    /* \"#utility.yul\":4846:4910   */\n  sstore\n    /* \"#utility.yul\":4768:4924   */\n  pop\n    /* \"#utility.yul\":4745:4924   */\ntag_85:\n    /* \"#utility.yul\":4970:4971   */\n  0x01\n    /* \"#utility.yul\":4966:4967   */\n  0x02\n    /* \"#utility.yul\":4958:4964   */\n  dup9\n    /* \"#utility.yul\":4954:4968   */\n  mul\n    /* \"#utility.yul\":4950:4972   */\n  add\n    /* \"#utility.yul\":4944:4948   */\n  dup9\n    /* \"#utility.yul\":4937:4973   */\n  sstore\n    /* \"#utility.yul\":4372:4983   */\n  pop\n  pop\n  pop\n    /* \"#utility.yul\":4335:5222   */\ntag_77:\n  pop\n    /* \"#utility.yul\":3925:5228   */\n  pop\n  pop\n  pop\n    /* \"#utility.yul\":3833:5228   */\n  pop\n  pop\n  jump\t// out\n    /* \"test1.sol\":118:1181  contract HelloWorld{... */\ntag_4:\n  dataSize(sub_0)\n  dup1\n  dataOffset(sub_0)\n  0x00\n  codecopy\n  0x00\n  return\nstop\n\nsub_0: assembly {\n        /* \"test1.sol\":118:1181  contract HelloWorld{... */\n      mstore(0x40, 0x80)\n      callvalue\n      dup1\n      iszero\n      tag_1\n      jumpi\n      0x00\n      dup1\n      revert\n    tag_1:\n      pop\n      jumpi(tag_2, lt(calldatasize, 0x04))\n      shr(0xe0, calldataload(0x00))\n      dup1\n      0x42257b31\n      eq\n      tag_3\n      jumpi\n      dup1\n      0x5d641b89\n      eq\n      tag_4\n      jumpi\n    tag_2:\n      0x00\n      dup1\n      revert\n        /* \"test1.sol\":341:780  function sayHello(uint256 _id) public view returns(string memory){... */\n    tag_3:\n      tag_5\n      0x04\n      dup1\n      calldatasize\n      sub\n      dup2\n      add\n      swap1\n      tag_6\n      swap2\n      swap1\n      tag_7\n      jump\t// in\n    tag_6:\n      tag_8\n      jump\t// in\n    tag_5:\n      mload(0x40)\n      tag_9\n      swap2\n      swap1\n      tag_10\n      jump\t// in\n    tag_9:\n      mload(0x40)\n      dup1\n      swap2\n      sub\n      swap1\n      return\n        /* \"test1.sol\":965:1164  function setHelloWorld(string memory newString,uint256 _id) public{... */\n    tag_4:\n      tag_11\n      0x04\n      dup1\n      calldatasize\n      sub\n      dup2\n      add\n      swap1\n      tag_12\n      swap2\n      swap1\n      tag_13\n      jump\t// in\n    tag_12:\n      tag_14\n      jump\t// in\n    tag_11:\n      stop\n        /* \"test1.sol\":341:780  function sayHello(uint256 _id) public view returns(string memory){... */\n    tag_8:\n        /* \"test1.sol\":392:405  string memory */\n      0x60\n        /* \"test1.sol\":453:456  0x0 */\n      0x00\n        /* \"test1.sol\":420:457  infoMapping[_id].addr == address(0x0) */\n      0xffffffffffffffffffffffffffffffffffffffff\n      and\n        /* \"test1.sol\":420:431  infoMapping */\n      0x02\n        /* \"test1.sol\":420:436  infoMapping[_id] */\n      0x00\n        /* \"test1.sol\":432:435  _id */\n      dup5\n        /* \"test1.sol\":420:436  infoMapping[_id] */\n      dup2\n      mstore\n      0x20\n      add\n      swap1\n      dup2\n      mstore\n      0x20\n      add\n      0x00\n      keccak256\n        /* \"test1.sol\":420:441  infoMapping[_id].addr */\n      0x02\n      add\n      0x00\n      swap1\n      sload\n      swap1\n      0x0100\n      exp\n      swap1\n      div\n      0xffffffffffffffffffffffffffffffffffffffff\n      and\n        /* \"test1.sol\":420:457  infoMapping[_id].addr == address(0x0) */\n      0xffffffffffffffffffffffffffffffffffffffff\n      and\n      sub\n        /* \"test1.sol\":417:568  if(infoMapping[_id].addr == address(0x0)){... */\n      tag_16\n      jumpi\n        /* \"test1.sol\":480:495  addinfo(strVar) */\n      tag_17\n        /* \"test1.sol\":488:494  strVar */\n      0x00\n        /* \"test1.sol\":480:495  addinfo(strVar) */\n      dup1\n      sload\n      tag_18\n      swap1\n      tag_19\n      jump\t// in\n    tag_18:\n      dup1\n      0x1f\n      add\n      0x20\n      dup1\n      swap2\n      div\n      mul\n      0x20\n      add\n      mload(0x40)\n      swap1\n      dup2\n      add\n      0x40\n      mstore\n      dup1\n      swap3\n      swap2\n      swap1\n      dup2\n      dup2\n      mstore\n      0x20\n      add\n      dup3\n      dup1\n      sload\n      tag_20\n      swap1\n      tag_19\n      jump\t// in\n    tag_20:\n      dup1\n      iszero\n      tag_21\n      jumpi\n      dup1\n      0x1f\n      lt\n      tag_22\n      jumpi\n      0x0100\n      dup1\n      dup4\n      sload\n      div\n      mul\n      dup4\n      mstore\n      swap2\n      0x20\n      add\n      swap2\n      jump(tag_21)\n    tag_22:\n      dup3\n      add\n      swap2\n      swap1\n      0x00\n      mstore\n      keccak256(0x00, 0x20)\n      swap1\n    tag_23:\n      dup2\n      sload\n      dup2\n      mstore\n      swap1\n      0x01\n      add\n      swap1\n      0x20\n      add\n      dup1\n      dup4\n      gt\n      tag_23\n      jumpi\n      dup3\n      swap1\n      sub\n      0x1f\n      and\n      dup3\n      add\n      swap2\n    tag_21:\n      pop\n      pop\n      pop\n      pop\n      pop\n        /* \"test1.sol\":480:487  addinfo */\n      tag_24\n        /* \"test1.sol\":480:495  addinfo(strVar) */\n      jump\t// in\n    tag_17:\n        /* \"test1.sol\":473:495  return addinfo(strVar) */\n      swap1\n      pop\n      jump(tag_15)\n        /* \"test1.sol\":417:568  if(infoMapping[_id].addr == address(0x0)){... */\n    tag_16:\n        /* \"test1.sol\":533:544  infoMapping */\n      0x02\n        /* \"test1.sol\":533:549  infoMapping[_id] */\n      0x00\n        /* \"test1.sol\":545:548  _id */\n      dup4\n        /* \"test1.sol\":533:549  infoMapping[_id] */\n      dup2\n      mstore\n      0x20\n      add\n      swap1\n      dup2\n      mstore\n      0x20\n      add\n      0x00\n      keccak256\n        /* \"test1.sol\":533:556  infoMapping[_id].phrase */\n      0x00\n      add\n        /* \"test1.sol\":526:556  return infoMapping[_id].phrase */\n      dup1\n      sload\n      tag_26\n      swap1\n      tag_19\n      jump\t// in\n    tag_26:\n      dup1\n      0x1f\n      add\n      0x20\n      dup1\n      swap2\n      div\n      mul\n      0x20\n      add\n      mload(0x40)\n      swap1\n      dup2\n      add\n      0x40\n      mstore\n      dup1\n      swap3\n      swap2\n      swap1\n      dup2\n      dup2\n      mstore\n      0x20\n      add\n      dup3\n      dup1\n      sload\n      tag_27\n      swap1\n      tag_19\n      jump\t// in\n    tag_27:\n      dup1\n      iszero\n      tag_28\n      jumpi\n      dup1\n      0x1f\n      lt\n      tag_29\n      jumpi\n      0x0100\n      dup1\n      dup4\n      sload\n      div\n      mul\n      dup4\n      mstore\n      swap2\n      0x20\n      add\n      swap2\n      jump(tag_28)\n    tag_29:\n      dup3\n      add\n      swap2\n      swap1\n      0x00\n      mstore\n      keccak256(0x00, 0x20)\n      swap1\n    tag_30:\n      dup2\n      sload\n      dup2\n      mstore\n      swap1\n      0x01\n      add\n      swap1\n      0x20\n      add\n      dup1\n      dup4\n      gt\n      tag_30\n      jumpi\n      dup3\n      swap1\n      sub\n      0x1f\n      and\n      dup3\n      add\n      swap2\n    tag_28:\n      pop\n      pop\n      pop\n      pop\n      pop\n      swap1\n      pop\n        /* \"test1.sol\":341:780  function sayHello(uint256 _id) public view returns(string memory){... */\n    tag_15:\n      swap2\n      swap1\n      pop\n      jump\t// out\n        /* \"test1.sol\":965:1164  function setHelloWorld(string memory newString,uint256 _id) public{... */\n    tag_14:\n        /* \"test1.sol\":1042:1058  Info memory info */\n      0x00\n        /* \"test1.sol\":1061:1092  Info(newString, _id,msg.sender) */\n      mload(0x40)\n      dup1\n      0x60\n      add\n      0x40\n      mstore\n      dup1\n        /* \"test1.sol\":1066:1075  newString */\n      dup5\n        /* \"test1.sol\":1061:1092  Info(newString, _id,msg.sender) */\n      dup2\n      mstore\n      0x20\n      add\n        /* \"test1.sol\":1077:1080  _id */\n      dup4\n        /* \"test1.sol\":1061:1092  Info(newString, _id,msg.sender) */\n      dup2\n      mstore\n      0x20\n      add\n        /* \"test1.sol\":1081:1091  msg.sender */\n      caller\n        /* \"test1.sol\":1061:1092  Info(newString, _id,msg.sender) */\n      0xffffffffffffffffffffffffffffffffffffffff\n      and\n      dup2\n      mstore\n      pop\n        /* \"test1.sol\":1042:1092  Info memory info = Info(newString, _id,msg.sender) */\n      swap1\n      pop\n        /* \"test1.sol\":1122:1126  info */\n      dup1\n        /* \"test1.sol\":1103:1114  infoMapping */\n      0x02\n        /* \"test1.sol\":1103:1119  infoMapping[_id] */\n      0x00\n        /* \"test1.sol\":1115:1118  _id */\n      dup5\n        /* \"test1.sol\":1103:1119  infoMapping[_id] */\n      dup2\n      mstore\n      0x20\n      add\n      swap1\n      dup2\n      mstore\n      0x20\n      add\n      0x00\n      keccak256\n        /* \"test1.sol\":1103:1126  infoMapping[_id] = info */\n      0x00\n      dup3\n      add\n      mload\n      dup2\n      0x00\n      add\n      swap1\n      dup2\n      tag_32\n      swap2\n      swap1\n      tag_33\n      jump\t// in\n    tag_32:\n      pop\n      0x20\n      dup3\n      add\n      mload\n      dup2\n      0x01\n      add\n      sstore\n      0x40\n      dup3\n      add\n      mload\n      dup2\n      0x02\n      add\n      exp(0x0100, 0x00)\n      dup2\n      sload\n      dup2\n      0xffffffffffffffffffffffffffffffffffffffff\n      mul\n      not\n      and\n      swap1\n      dup4\n      0xffffffffffffffffffffffffffffffffffffffff\n      and\n      mul\n      or\n      swap1\n      sstore\n      pop\n      swap1\n      pop\n      pop\n        /* \"test1.sol\":1031:1164  {... */\n      pop\n        /* \"test1.sol\":965:1164  function setHelloWorld(string memory newString,uint256 _id) public{... */\n      pop\n      pop\n      jump\t// out\n        /* \"test1.sol\":786:941  function addinfo(string memory helloWorldStr) internal pure returns(string memory){... */\n    tag_24:\n        /* \"test1.sol\":854:867  string memory */\n      0x60\n        /* \"test1.sol\":898:911  helloWorldStr */\n      dup2\n        /* \"test1.sol\":884:933  string.concat(helloWorldStr,\"from jy's contract\") */\n      add(0x20, mload(0x40))\n      tag_35\n      swap2\n      swap1\n      tag_36\n      jump\t// in\n    tag_35:\n      mload(0x40)\n      0x20\n      dup2\n      dup4\n      sub\n      sub\n      dup2\n      mstore\n      swap1\n      0x40\n      mstore\n        /* \"test1.sol\":877:933  return string.concat(helloWorldStr,\"from jy's contract\") */\n      swap1\n      pop\n        /* \"test1.sol\":786:941  function addinfo(string memory helloWorldStr) internal pure returns(string memory){... */\n      swap2\n      swap1\n      pop\n      jump\t// out\n        /* \"#utility.yul\":7:82   */\n    tag_37:\n        /* \"#utility.yul\":40:46   */\n      0x00\n        /* \"#utility.yul\":73:75   */\n      0x40\n        /* \"#utility.yul\":67:76   */\n      mload\n        /* \"#utility.yul\":57:76   */\n      swap1\n      pop\n        /* \"#utility.yul\":7:82   */\n      swap1\n      jump\t// out\n        /* \"#utility.yul\":88:205   */\n    tag_38:\n        /* \"#utility.yul\":197:198   */\n      0x00\n        /* \"#utility.yul\":194:195   */\n      dup1\n        /* \"#utility.yul\":187:199   */\n      revert\n        /* \"#utility.yul\":211:328   */\n    tag_39:\n        /* \"#utility.yul\":320:321   */\n      0x00\n        /* \"#utility.yul\":317:318   */\n      dup1\n        /* \"#utility.yul\":310:322   */\n      revert\n        /* \"#utility.yul\":334:411   */\n    tag_40:\n        /* \"#utility.yul\":371:378   */\n      0x00\n        /* \"#utility.yul\":400:405   */\n      dup2\n        /* \"#utility.yul\":389:405   */\n      swap1\n      pop\n        /* \"#utility.yul\":334:411   */\n      swap2\n      swap1\n      pop\n      jump\t// out\n        /* \"#utility.yul\":417:539   */\n    tag_41:\n        /* \"#utility.yul\":490:514   */\n      tag_82\n        /* \"#utility.yul\":508:513   */\n      dup2\n        /* \"#utility.yul\":490:514   */\n      tag_40\n      jump\t// in\n    tag_82:\n        /* \"#utility.yul\":483:488   */\n      dup2\n        /* \"#utility.yul\":480:515   */\n      eq\n        /* \"#utility.yul\":470:533   */\n      tag_83\n      jumpi\n        /* \"#utility.yul\":529:530   */\n      0x00\n        /* \"#utility.yul\":526:527   */\n      dup1\n        /* \"#utility.yul\":519:531   */\n      revert\n        /* \"#utility.yul\":470:533   */\n    tag_83:\n        /* \"#utility.yul\":417:539   */\n      pop\n      jump\t// out\n        /* \"#utility.yul\":545:684   */\n    tag_42:\n        /* \"#utility.yul\":591:596   */\n      0x00\n        /* \"#utility.yul\":629:635   */\n      dup2\n        /* \"#utility.yul\":616:636   */\n      calldataload\n        /* \"#utility.yul\":607:636   */\n      swap1\n      pop\n        /* \"#utility.yul\":645:678   */\n      tag_85\n        /* \"#utility.yul\":672:677   */\n      dup2\n        /* \"#utility.yul\":645:678   */\n      tag_41\n      jump\t// in\n    tag_85:\n        /* \"#utility.yul\":545:684   */\n      swap3\n      swap2\n      pop\n      pop\n      jump\t// out\n        /* \"#utility.yul\":690:1019   */\n    tag_7:\n        /* \"#utility.yul\":749:755   */\n      0x00\n        /* \"#utility.yul\":798:800   */\n      0x20\n        /* \"#utility.yul\":786:795   */\n      dup3\n        /* \"#utility.yul\":777:784   */\n      dup5\n        /* \"#utility.yul\":773:796   */\n      sub\n        /* \"#utility.yul\":769:801   */\n      slt\n        /* \"#utility.yul\":766:885   */\n      iszero\n      tag_87\n      jumpi\n        /* \"#utility.yul\":804:883   */\n      tag_88\n      tag_38\n      jump\t// in\n    tag_88:\n        /* \"#utility.yul\":766:885   */\n    tag_87:\n        /* \"#utility.yul\":924:925   */\n      0x00\n        /* \"#utility.yul\":949:1002   */\n      tag_89\n        /* \"#utility.yul\":994:1001   */\n      dup5\n        /* \"#utility.yul\":985:991   */\n      dup3\n        /* \"#utility.yul\":974:983   */\n      dup6\n        /* \"#utility.yul\":970:992   */\n      add\n        /* \"#utility.yul\":949:1002   */\n      tag_42\n      jump\t// in\n    tag_89:\n        /* \"#utility.yul\":939:1002   */\n      swap2\n      pop\n        /* \"#utility.yul\":895:1012   */\n      pop\n        /* \"#utility.yul\":690:1019   */\n      swap3\n      swap2\n      pop\n      pop\n      jump\t// out\n        /* \"#utility.yul\":1025:1124   */\n    tag_43:\n        /* \"#utility.yul\":1077:1083   */\n      0x00\n        /* \"#utility.yul\":1111:1116   */\n      dup2\n        /* \"#utility.yul\":1105:1117   */\n      mload\n        /* \"#utility.yul\":1095:1117   */\n      swap1\n      pop\n        /* \"#utility.yul\":1025:1124   */\n      swap2\n      swap1\n      pop\n      jump\t// out\n        /* \"#utility.yul\":1130:1299   */\n    tag_44:\n        /* \"#utility.yul\":1214:1225   */\n      0x00\n        /* \"#utility.yul\":1248:1254   */\n      dup3\n        /* \"#utility.yul\":1243:1246   */\n      dup3\n        /* \"#utility.yul\":1236:1255   */\n      mstore\n        /* \"#utility.yul\":1288:1292   */\n      0x20\n        /* \"#utility.yul\":1283:1286   */\n      dup3\n        /* \"#utility.yul\":1279:1293   */\n      add\n        /* \"#utility.yul\":1264:1293   */\n      swap1\n      pop\n        /* \"#utility.yul\":1130:1299   */\n      swap3\n      swap2\n      pop\n      pop\n      jump\t// out\n        /* \"#utility.yul\":1305:1553   */\n    tag_45:\n        /* \"#utility.yul\":1387:1388   */\n      0x00\n        /* \"#utility.yul\":1397:1510   */\n    tag_93:\n        /* \"#utility.yul\":1411:1417   */\n      dup4\n        /* \"#utility.yul\":1408:1409   */\n      dup2\n        /* \"#utility.yul\":1405:1418   */\n      lt\n        /* \"#utility.yul\":1397:1510   */\n      iszero\n      tag_95\n      jumpi\n        /* \"#utility.yul\":1496:1497   */\n      dup1\n        /* \"#utility.yul\":1491:1494   */\n      dup3\n        /* \"#utility.yul\":1487:1498   */\n      add\n        /* \"#utility.yul\":1481:1499   */\n      mload\n        /* \"#utility.yul\":1477:1478   */\n      dup2\n        /* \"#utility.yul\":1472:1475   */\n      dup5\n        /* \"#utility.yul\":1468:1479   */\n      add\n        /* \"#utility.yul\":1461:1500   */\n      mstore\n        /* \"#utility.yul\":1433:1435   */\n      0x20\n        /* \"#utility.yul\":1430:1431   */\n      dup2\n        /* \"#utility.yul\":1426:1436   */\n      add\n        /* \"#utility.yul\":1421:1436   */\n      swap1\n      pop\n        /* \"#utility.yul\":1397:1510   */\n      jump(tag_93)\n    tag_95:\n        /* \"#utility.yul\":1544:1545   */\n      0x00\n        /* \"#utility.yul\":1535:1541   */\n      dup5\n        /* \"#utility.yul\":1530:1533   */\n      dup5\n        /* \"#utility.yul\":1526:1542   */\n      add\n        /* \"#utility.yul\":1519:1546   */\n      mstore\n        /* \"#utility.yul\":1367:1553   */\n      pop\n        /* \"#utility.yul\":1305:1553   */\n      pop\n      pop\n      pop\n      jump\t// out\n        /* \"#utility.yul\":1559:1661   */\n    tag_46:\n        /* \"#utility.yul\":1600:1606   */\n      0x00\n        /* \"#utility.yul\":1651:1653   */\n      0x1f\n        /* \"#utility.yul\":1647:1654   */\n      not\n        /* \"#utility.yul\":1642:1644   */\n      0x1f\n        /* \"#utility.yul\":1635:1640   */\n      dup4\n        /* \"#utility.yul\":1631:1645   */\n      add\n        /* \"#utility.yul\":1627:1655   */\n      and\n        /* \"#utility.yul\":1617:1655   */\n      swap1\n      pop\n        /* \"#utility.yul\":1559:1661   */\n      swap2\n      swap1\n      pop\n      jump\t// out\n        /* \"#utility.yul\":1667:2044   */\n    tag_47:\n        /* \"#utility.yul\":1755:1758   */\n      0x00\n        /* \"#utility.yul\":1783:1822   */\n      tag_98\n        /* \"#utility.yul\":1816:1821   */\n      dup3\n        /* \"#utility.yul\":1783:1822   */\n      tag_43\n      jump\t// in\n    tag_98:\n        /* \"#utility.yul\":1838:1909   */\n      tag_99\n        /* \"#utility.yul\":1902:1908   */\n      dup2\n        /* \"#utility.yul\":1897:1900   */\n      dup6\n        /* \"#utility.yul\":1838:1909   */\n      tag_44\n      jump\t// in\n    tag_99:\n        /* \"#utility.yul\":1831:1909   */\n      swap4\n      pop\n        /* \"#utility.yul\":1918:1983   */\n      tag_100\n        /* \"#utility.yul\":1976:1982   */\n      dup2\n        /* \"#utility.yul\":1971:1974   */\n      dup6\n        /* \"#utility.yul\":1964:1968   */\n      0x20\n        /* \"#utility.yul\":1957:1962   */\n      dup7\n        /* \"#utility.yul\":1953:1969   */\n      add\n        /* \"#utility.yul\":1918:1983   */\n      tag_45\n      jump\t// in\n    tag_100:\n        /* \"#utility.yul\":2008:2037   */\n      tag_101\n        /* \"#utility.yul\":2030:2036   */\n      dup2\n        /* \"#utility.yul\":2008:2037   */\n      tag_46\n      jump\t// in\n    tag_101:\n        /* \"#utility.yul\":2003:2006   */\n      dup5\n        /* \"#utility.yul\":1999:2038   */\n      add\n        /* \"#utility.yul\":1992:2038   */\n      swap2\n      pop\n        /* \"#utility.yul\":1759:2044   */\n      pop\n        /* \"#utility.yul\":1667:2044   */\n      swap3\n      swap2\n      pop\n      pop\n      jump\t// out\n        /* \"#utility.yul\":2050:2363   */\n    tag_10:\n        /* \"#utility.yul\":2163:2167   */\n      0x00\n        /* \"#utility.yul\":2201:2203   */\n      0x20\n        /* \"#utility.yul\":2190:2199   */\n      dup3\n        /* \"#utility.yul\":2186:2204   */\n      add\n        /* \"#utility.yul\":2178:2204   */\n      swap1\n      pop\n        /* \"#utility.yul\":2250:2259   */\n      dup2\n        /* \"#utility.yul\":2244:2248   */\n      dup2\n        /* \"#utility.yul\":2240:2260   */\n      sub\n        /* \"#utility.yul\":2236:2237   */\n      0x00\n        /* \"#utility.yul\":2225:2234   */\n      dup4\n        /* \"#utility.yul\":2221:2238   */\n      add\n        /* \"#utility.yul\":2214:2261   */\n      mstore\n        /* \"#utility.yul\":2278:2356   */\n      tag_103\n        /* \"#utility.yul\":2351:2355   */\n      dup2\n        /* \"#utility.yul\":2342:2348   */\n      dup5\n        /* \"#utility.yul\":2278:2356   */\n      tag_47\n      jump\t// in\n    tag_103:\n        /* \"#utility.yul\":2270:2356   */\n      swap1\n      pop\n        /* \"#utility.yul\":2050:2363   */\n      swap3\n      swap2\n      pop\n      pop\n      jump\t// out\n        /* \"#utility.yul\":2369:2486   */\n    tag_48:\n        /* \"#utility.yul\":2478:2479   */\n      0x00\n        /* \"#utility.yul\":2475:2476   */\n      dup1\n        /* \"#utility.yul\":2468:2480   */\n      revert\n        /* \"#utility.yul\":2492:2609   */\n    tag_49:\n        /* \"#utility.yul\":2601:2602   */\n      0x00\n        /* \"#utility.yul\":2598:2599   */\n      dup1\n        /* \"#utility.yul\":2591:2603   */\n      revert\n        /* \"#utility.yul\":2615:2795   */\n    tag_50:\n        /* \"#utility.yul\":2663:2740   */\n      0x4e487b7100000000000000000000000000000000000000000000000000000000\n        /* \"#utility.yul\":2660:2661   */\n      0x00\n        /* \"#utility.yul\":2653:2741   */\n      mstore\n        /* \"#utility.yul\":2760:2764   */\n      0x41\n        /* \"#utility.yul\":2757:2758   */\n      0x04\n        /* \"#utility.yul\":2750:2765   */\n      mstore\n        /* \"#utility.yul\":2784:2788   */\n      0x24\n        /* \"#utility.yul\":2781:2782   */\n      0x00\n        /* \"#utility.yul\":2774:2789   */\n      revert\n        /* \"#utility.yul\":2801:3082   */\n    tag_51:\n        /* \"#utility.yul\":2884:2911   */\n      tag_108\n        /* \"#utility.yul\":2906:2910   */\n      dup3\n        /* \"#utility.yul\":2884:2911   */\n      tag_46\n      jump\t// in\n    tag_108:\n        /* \"#utility.yul\":2876:2882   */\n      dup2\n        /* \"#utility.yul\":2872:2912   */\n      add\n        /* \"#utility.yul\":3014:3020   */\n      dup2\n        /* \"#utility.yul\":3002:3012   */\n      dup2\n        /* \"#utility.yul\":2999:3021   */\n      lt\n        /* \"#utility.yul\":2978:2996   */\n      0xffffffffffffffff\n        /* \"#utility.yul\":2966:2976   */\n      dup3\n        /* \"#utility.yul\":2963:2997   */\n      gt\n        /* \"#utility.yul\":2960:3022   */\n      or\n        /* \"#utility.yul\":2957:3045   */\n      iszero\n      tag_109\n      jumpi\n        /* \"#utility.yul\":3025:3043   */\n      tag_110\n      tag_50\n      jump\t// in\n    tag_110:\n        /* \"#utility.yul\":2957:3045   */\n    tag_109:\n        /* \"#utility.yul\":3065:3075   */\n      dup1\n        /* \"#utility.yul\":3061:3063   */\n      0x40\n        /* \"#utility.yul\":3054:3076   */\n      mstore\n        /* \"#utility.yul\":2844:3082   */\n      pop\n        /* \"#utility.yul\":2801:3082   */\n      pop\n      pop\n      jump\t// out\n        /* \"#utility.yul\":3088:3217   */\n    tag_52:\n        /* \"#utility.yul\":3122:3128   */\n      0x00\n        /* \"#utility.yul\":3149:3169   */\n      tag_112\n      tag_37\n      jump\t// in\n    tag_112:\n        /* \"#utility.yul\":3139:3169   */\n      swap1\n      pop\n        /* \"#utility.yul\":3178:3211   */\n      tag_113\n        /* \"#utility.yul\":3206:3210   */\n      dup3\n        /* \"#utility.yul\":3198:3204   */\n      dup3\n        /* \"#utility.yul\":3178:3211   */\n      tag_51\n      jump\t// in\n    tag_113:\n        /* \"#utility.yul\":3088:3217   */\n      swap2\n      swap1\n      pop\n      jump\t// out\n        /* \"#utility.yul\":3223:3531   */\n    tag_53:\n        /* \"#utility.yul\":3285:3289   */\n      0x00\n        /* \"#utility.yul\":3375:3393   */\n      0xffffffffffffffff\n        /* \"#utility.yul\":3367:3373   */\n      dup3\n        /* \"#utility.yul\":3364:3394   */\n      gt\n        /* \"#utility.yul\":3361:3417   */\n      iszero\n      tag_115\n      jumpi\n        /* \"#utility.yul\":3397:3415   */\n      tag_116\n      tag_50\n      jump\t// in\n    tag_116:\n        /* \"#utility.yul\":3361:3417   */\n    tag_115:\n        /* \"#utility.yul\":3435:3464   */\n      tag_117\n        /* \"#utility.yul\":3457:3463   */\n      dup3\n        /* \"#utility.yul\":3435:3464   */\n      tag_46\n      jump\t// in\n    tag_117:\n        /* \"#utility.yul\":3427:3464   */\n      swap1\n      pop\n        /* \"#utility.yul\":3519:3523   */\n      0x20\n        /* \"#utility.yul\":3513:3517   */\n      dup2\n        /* \"#utility.yul\":3509:3524   */\n      add\n        /* \"#utility.yul\":3501:3524   */\n      swap1\n      pop\n        /* \"#utility.yul\":3223:3531   */\n      swap2\n      swap1\n      pop\n      jump\t// out\n        /* \"#utility.yul\":3537:3685   */\n    tag_54:\n        /* \"#utility.yul\":3635:3641   */\n      dup3\n        /* \"#utility.yul\":3630:3633   */\n      dup2\n        /* \"#utility.yul\":3625:3628   */\n      dup4\n        /* \"#utility.yul\":3612:3642   */\n      calldatacopy\n        /* \"#utility.yul\":3676:3677   */\n      0x00\n        /* \"#utility.yul\":3667:3673   */\n      dup4\n        /* \"#utility.yul\":3662:3665   */\n      dup4\n        /* \"#utility.yul\":3658:3674   */\n      add\n        /* \"#utility.yul\":3651:3678   */\n      mstore\n        /* \"#utility.yul\":3537:3685   */\n      pop\n      pop\n      pop\n      jump\t// out\n        /* \"#utility.yul\":3691:4116   */\n    tag_55:\n        /* \"#utility.yul\":3769:3774   */\n      0x00\n        /* \"#utility.yul\":3794:3860   */\n      tag_120\n        /* \"#utility.yul\":3810:3859   */\n      tag_121\n        /* \"#utility.yul\":3852:3858   */\n      dup5\n        /* \"#utility.yul\":3810:3859   */\n      tag_53\n      jump\t// in\n    tag_121:\n        /* \"#utility.yul\":3794:3860   */\n      tag_52\n      jump\t// in\n    tag_120:\n        /* \"#utility.yul\":3785:3860   */\n      swap1\n      pop\n        /* \"#utility.yul\":3883:3889   */\n      dup3\n        /* \"#utility.yul\":3876:3881   */\n      dup2\n        /* \"#utility.yul\":3869:3890   */\n      mstore\n        /* \"#utility.yul\":3921:3925   */\n      0x20\n        /* \"#utility.yul\":3914:3919   */\n      dup2\n        /* \"#utility.yul\":3910:3926   */\n      add\n        /* \"#utility.yul\":3959:3962   */\n      dup5\n        /* \"#utility.yul\":3950:3956   */\n      dup5\n        /* \"#utility.yul\":3945:3948   */\n      dup5\n        /* \"#utility.yul\":3941:3957   */\n      add\n        /* \"#utility.yul\":3938:3963   */\n      gt\n        /* \"#utility.yul\":3935:4047   */\n      iszero\n      tag_122\n      jumpi\n        /* \"#utility.yul\":3966:4045   */\n      tag_123\n      tag_49\n      jump\t// in\n    tag_123:\n        /* \"#utility.yul\":3935:4047   */\n    tag_122:\n        /* \"#utility.yul\":4056:4110   */\n      tag_124\n        /* \"#utility.yul\":4103:4109   */\n      dup5\n        /* \"#utility.yul\":4098:4101   */\n      dup3\n        /* \"#utility.yul\":4093:4096   */\n      dup6\n        /* \"#utility.yul\":4056:4110   */\n      tag_54\n      jump\t// in\n    tag_124:\n        /* \"#utility.yul\":3775:4116   */\n      pop\n        /* \"#utility.yul\":3691:4116   */\n      swap4\n      swap3\n      pop\n      pop\n      pop\n      jump\t// out\n        /* \"#utility.yul\":4136:4476   */\n    tag_56:\n        /* \"#utility.yul\":4192:4197   */\n      0x00\n        /* \"#utility.yul\":4241:4244   */\n      dup3\n        /* \"#utility.yul\":4234:4238   */\n      0x1f\n        /* \"#utility.yul\":4226:4232   */\n      dup4\n        /* \"#utility.yul\":4222:4239   */\n      add\n        /* \"#utility.yul\":4218:4245   */\n      slt\n        /* \"#utility.yul\":4208:4330   */\n      tag_126\n      jumpi\n        /* \"#utility.yul\":4249:4328   */\n      tag_127\n      tag_48\n      jump\t// in\n    tag_127:\n        /* \"#utility.yul\":4208:4330   */\n    tag_126:\n        /* \"#utility.yul\":4366:4372   */\n      dup2\n        /* \"#utility.yul\":4353:4373   */\n      calldataload\n        /* \"#utility.yul\":4391:4470   */\n      tag_128\n        /* \"#utility.yul\":4466:4469   */\n      dup5\n        /* \"#utility.yul\":4458:4464   */\n      dup3\n        /* \"#utility.yul\":4451:4455   */\n      0x20\n        /* \"#utility.yul\":4443:4449   */\n      dup7\n        /* \"#utility.yul\":4439:4456   */\n      add\n        /* \"#utility.yul\":4391:4470   */\n      tag_55\n      jump\t// in\n    tag_128:\n        /* \"#utility.yul\":4382:4470   */\n      swap2\n      pop\n        /* \"#utility.yul\":4198:4476   */\n      pop\n        /* \"#utility.yul\":4136:4476   */\n      swap3\n      swap2\n      pop\n      pop\n      jump\t// out\n        /* \"#utility.yul\":4482:5136   */\n    tag_13:\n        /* \"#utility.yul\":4560:4566   */\n      0x00\n        /* \"#utility.yul\":4568:4574   */\n      dup1\n        /* \"#utility.yul\":4617:4619   */\n      0x40\n        /* \"#utility.yul\":4605:4614   */\n      dup4\n        /* \"#utility.yul\":4596:4603   */\n      dup6\n        /* \"#utility.yul\":4592:4615   */\n      sub\n        /* \"#utility.yul\":4588:4620   */\n      slt\n        /* \"#utility.yul\":4585:4704   */\n      iszero\n      tag_130\n      jumpi\n        /* \"#utility.yul\":4623:4702   */\n      tag_131\n      tag_38\n      jump\t// in\n    tag_131:\n        /* \"#utility.yul\":4585:4704   */\n    tag_130:\n        /* \"#utility.yul\":4771:4772   */\n      0x00\n        /* \"#utility.yul\":4760:4769   */\n      dup4\n        /* \"#utility.yul\":4756:4773   */\n      add\n        /* \"#utility.yul\":4743:4774   */\n      calldataload\n        /* \"#utility.yul\":4801:4819   */\n      0xffffffffffffffff\n        /* \"#utility.yul\":4793:4799   */\n      dup2\n        /* \"#utility.yul\":4790:4820   */\n      gt\n        /* \"#utility.yul\":4787:4904   */\n      iszero\n      tag_132\n      jumpi\n        /* \"#utility.yul\":4823:4902   */\n      tag_133\n      tag_39\n      jump\t// in\n    tag_133:\n        /* \"#utility.yul\":4787:4904   */\n    tag_132:\n        /* \"#utility.yul\":4928:4991   */\n      tag_134\n        /* \"#utility.yul\":4983:4990   */\n      dup6\n        /* \"#utility.yul\":4974:4980   */\n      dup3\n        /* \"#utility.yul\":4963:4972   */\n      dup7\n        /* \"#utility.yul\":4959:4981   */\n      add\n        /* \"#utility.yul\":4928:4991   */\n      tag_56\n      jump\t// in\n    tag_134:\n        /* \"#utility.yul\":4918:4991   */\n      swap3\n      pop\n        /* \"#utility.yul\":4714:5001   */\n      pop\n        /* \"#utility.yul\":5040:5042   */\n      0x20\n        /* \"#utility.yul\":5066:5119   */\n      tag_135\n        /* \"#utility.yul\":5111:5118   */\n      dup6\n        /* \"#utility.yul\":5102:5108   */\n      dup3\n        /* \"#utility.yul\":5091:5100   */\n      dup7\n        /* \"#utility.yul\":5087:5109   */\n      add\n        /* \"#utility.yul\":5066:5119   */\n      tag_42\n      jump\t// in\n    tag_135:\n        /* \"#utility.yul\":5056:5119   */\n      swap2\n      pop\n        /* \"#utility.yul\":5011:5129   */\n      pop\n        /* \"#utility.yul\":4482:5136   */\n      swap3\n      pop\n      swap3\n      swap1\n      pop\n      jump\t// out\n        /* \"#utility.yul\":5142:5322   */\n    tag_57:\n        /* \"#utility.yul\":5190:5267   */\n      0x4e487b7100000000000000000000000000000000000000000000000000000000\n        /* \"#utility.yul\":5187:5188   */\n      0x00\n        /* \"#utility.yul\":5180:5268   */\n      mstore\n        /* \"#utility.yul\":5287:5291   */\n      0x22\n        /* \"#utility.yul\":5284:5285   */\n      0x04\n        /* \"#utility.yul\":5277:5292   */\n      mstore\n        /* \"#utility.yul\":5311:5315   */\n      0x24\n        /* \"#utility.yul\":5308:5309   */\n      0x00\n        /* \"#utility.yul\":5301:5316   */\n      revert\n        /* \"#utility.yul\":5328:5648   */\n    tag_19:\n        /* \"#utility.yul\":5372:5378   */\n      0x00\n        /* \"#utility.yul\":5409:5410   */\n      0x02\n        /* \"#utility.yul\":5403:5407   */\n      dup3\n        /* \"#utility.yul\":5399:5411   */\n      div\n        /* \"#utility.yul\":5389:5411   */\n      swap1\n      pop\n        /* \"#utility.yul\":5456:5457   */\n      0x01\n        /* \"#utility.yul\":5450:5454   */\n      dup3\n        /* \"#utility.yul\":5446:5458   */\n      and\n        /* \"#utility.yul\":5477:5495   */\n      dup1\n        /* \"#utility.yul\":5467:5548   */\n      tag_138\n      jumpi\n        /* \"#utility.yul\":5533:5537   */\n      0x7f\n        /* \"#utility.yul\":5525:5531   */\n      dup3\n        /* \"#utility.yul\":5521:5538   */\n      and\n        /* \"#utility.yul\":5511:5538   */\n      swap2\n      pop\n        /* \"#utility.yul\":5467:5548   */\n    tag_138:\n        /* \"#utility.yul\":5595:5597   */\n      0x20\n        /* \"#utility.yul\":5587:5593   */\n      dup3\n        /* \"#utility.yul\":5584:5598   */\n      lt\n        /* \"#utility.yul\":5564:5582   */\n      dup2\n        /* \"#utility.yul\":5561:5599   */\n      sub\n        /* \"#utility.yul\":5558:5642   */\n      tag_139\n      jumpi\n        /* \"#utility.yul\":5614:5632   */\n      tag_140\n      tag_57\n      jump\t// in\n    tag_140:\n        /* \"#utility.yul\":5558:5642   */\n    tag_139:\n        /* \"#utility.yul\":5379:5648   */\n      pop\n        /* \"#utility.yul\":5328:5648   */\n      swap2\n      swap1\n      pop\n      jump\t// out\n        /* \"#utility.yul\":5654:5795   */\n    tag_58:\n        /* \"#utility.yul\":5703:5707   */\n      0x00\n        /* \"#utility.yul\":5726:5729   */\n      dup2\n        /* \"#utility.yul\":5718:5729   */\n      swap1\n      pop\n        /* \"#utility.yul\":5749:5752   */\n      dup2\n        /* \"#utility.yul\":5746:5747   */\n      0x00\n        /* \"#utility.yul\":5739:5753   */\n      mstore\n        /* \"#utility.yul\":5783:5787   */\n      0x20\n        /* \"#utility.yul\":5780:5781   */\n      0x00\n        /* \"#utility.yul\":5770:5788   */\n      keccak256\n        /* \"#utility.yul\":5762:5788   */\n      swap1\n      pop\n        /* \"#utility.yul\":5654:5795   */\n      swap2\n      swap1\n      pop\n      jump\t// out\n        /* \"#utility.yul\":5801:5894   */\n    tag_59:\n        /* \"#utility.yul\":5838:5844   */\n      0x00\n        /* \"#utility.yul\":5885:5887   */\n      0x20\n        /* \"#utility.yul\":5880:5882   */\n      0x1f\n        /* \"#utility.yul\":5873:5878   */\n      dup4\n        /* \"#utility.yul\":5869:5883   */\n      add\n        /* \"#utility.yul\":5865:5888   */\n      div\n        /* \"#utility.yul\":5855:5888   */\n      swap1\n      pop\n        /* \"#utility.yul\":5801:5894   */\n      swap2\n      swap1\n      pop\n      jump\t// out\n        /* \"#utility.yul\":5900:6007   */\n    tag_60:\n        /* \"#utility.yul\":5944:5952   */\n      0x00\n        /* \"#utility.yul\":5994:5999   */\n      dup3\n        /* \"#utility.yul\":5988:5992   */\n      dup3\n        /* \"#utility.yul\":5984:6000   */\n      shl\n        /* \"#utility.yul\":5963:6000   */\n      swap1\n      pop\n        /* \"#utility.yul\":5900:6007   */\n      swap3\n      swap2\n      pop\n      pop\n      jump\t// out\n        /* \"#utility.yul\":6013:6406   */\n    tag_61:\n        /* \"#utility.yul\":6082:6088   */\n      0x00\n        /* \"#utility.yul\":6132:6133   */\n      0x08\n        /* \"#utility.yul\":6120:6130   */\n      dup4\n        /* \"#utility.yul\":6116:6134   */\n      mul\n        /* \"#utility.yul\":6155:6252   */\n      tag_145\n        /* \"#utility.yul\":6185:6251   */\n      0xffffffffffffffffffffffffffffffffffffffffffffffffffffffffffffffff\n        /* \"#utility.yul\":6174:6183   */\n      dup3\n        /* \"#utility.yul\":6155:6252   */\n      tag_60\n      jump\t// in\n    tag_145:\n        /* \"#utility.yul\":6273:6312   */\n      tag_146\n        /* \"#utility.yul\":6303:6311   */\n      dup7\n        /* \"#utility.yul\":6292:6301   */\n      dup4\n        /* \"#utility.yul\":6273:6312   */\n      tag_60\n      jump\t// in\n    tag_146:\n        /* \"#utility.yul\":6261:6312   */\n      swap6\n      pop\n        /* \"#utility.yul\":6345:6349   */\n      dup1\n        /* \"#utility.yul\":6341:6350   */\n      not\n        /* \"#utility.yul\":6334:6339   */\n      dup5\n        /* \"#utility.yul\":6330:6351   */\n      and\n        /* \"#utility.yul\":6321:6351   */\n      swap4\n      pop\n        /* \"#utility.yul\":6394:6398   */\n      dup1\n        /* \"#utility.yul\":6384:6392   */\n      dup7\n        /* \"#utility.yul\":6380:6399   */\n      and\n        /* \"#utility.yul\":6373:6378   */\n      dup5\n        /* \"#utility.yul\":6370:6400   */\n      or\n        /* \"#utility.yul\":6360:6400   */\n      swap3\n      pop\n        /* \"#utility.yul\":6089:6406   */\n      pop\n      pop\n        /* \"#utility.yul\":6013:6406   */\n      swap4\n      swap3\n      pop\n      pop\n      pop\n      jump\t// out\n        /* \"#utility.yul\":6412:6472   */\n    tag_62:\n        /* \"#utility.yul\":6440:6443   */\n      0x00\n        /* \"#utility.yul\":6461:6466   */\n      dup2\n        /* \"#utility.yul\":6454:6466   */\n      swap1\n      pop\n        /* \"#utility.yul\":6412:6472   */\n      swap2\n      swap1\n      pop\n      jump\t// out\n        /* \"#utility.yul\":6478:6620   */\n    tag_63:\n        /* \"#utility.yul\":6528:6537   */\n      0x00\n        /* \"#utility.yul\":6561:6614   */\n      tag_149\n        /* \"#utility.yul\":6579:6613   */\n      tag_150\n        /* \"#utility.yul\":6588:6612   */\n      tag_151\n        /* \"#utility.yul\":6606:6611   */\n      dup5\n        /* \"#utility.yul\":6588:6612   */\n      tag_40\n      jump\t// in\n    tag_151:\n        /* \"#utility.yul\":6579:6613   */\n      tag_62\n      jump\t// in\n    tag_150:\n        /* \"#utility.yul\":6561:6614   */\n      tag_40\n      jump\t// in\n    tag_149:\n        /* \"#utility.yul\":6548:6614   */\n      swap1\n      pop\n        /* \"#utility.yul\":6478:6620   */\n      swap2\n      swap1\n      pop\n      jump\t// out\n        /* \"#utility.yul\":6626:6701   */\n    tag_64:\n        /* \"#utility.yul\":6669:6672   */\n      0x00\n        /* \"#utility.yul\":6690:6695   */\n      dup2\n        /* \"#utility.yul\":6683:6695   */\n      swap1\n      pop\n        /* \"#utility.yul\":6626:6701   */\n      swap2\n      swap1\n      pop\n      jump\t// out\n        /* \"#utility.yul\":6707:6976   */\n    tag_65:\n        /* \"#utility.yul\":6817:6856   */\n      tag_154\n        /* \"#utility.yul\":6848:6855   */\n      dup4\n        /* \"#utility.yul\":6817:6856   */\n      tag_63\n      jump\t// in\n    tag_154:\n        /* \"#utility.yul\":6878:6969   */\n      tag_155\n        /* \"#utility.yul\":6927:6968   */\n      tag_156\n        /* \"#utility.yul\":6951:6967   */\n      dup3\n        /* \"#utility.yul\":6927:6968   */\n      tag_64\n      jump\t// in\n    tag_156:\n        /* \"#utility.yul\":6919:6925   */\n      dup5\n        /* \"#utility.yul\":6912:6916   */\n      dup5\n        /* \"#utility.yul\":6906:6917   */\n      sload\n        /* \"#utility.yul\":6878:6969   */\n      tag_61\n      jump\t// in\n    tag_155:\n        /* \"#utility.yul\":6872:6876   */\n      dup3\n        /* \"#utility.yul\":6865:6970   */\n      sstore\n        /* \"#utility.yul\":6783:6976   */\n      pop\n        /* \"#utility.yul\":6707:6976   */\n      pop\n      pop\n      pop\n      jump\t// out\n        /* \"#utility.yul\":6982:7055   */\n    tag_66:\n        /* \"#utility.yul\":7027:7030   */\n      0x00\n        /* \"#utility.yul\":6982:7055   */\n      swap1\n      jump\t// out\n        /* \"#utility.yul\":7061:7250   */\n    tag_67:\n        /* \"#utility.yul\":7138:7170   */\n      tag_159\n      tag_66\n      jump\t// in\n    tag_159:\n        /* \"#utility.yul\":7179:7244   */\n      tag_160\n        /* \"#utility.yul\":7237:7243   */\n      dup2\n        /* \"#utility.yul\":7229:7235   */\n      dup5\n        /* \"#utility.yul\":7223:7227   */\n      dup5\n        /* \"#utility.yul\":7179:7244   */\n      tag_65\n      jump\t// in\n    tag_160:\n        /* \"#utility.yul\":7114:7250   */\n      pop\n        /* \"#utility.yul\":7061:7250   */\n      pop\n      pop\n      jump\t// out\n        /* \"#utility.yul\":7256:7442   */\n    tag_68:\n        /* \"#utility.yul\":7316:7436   */\n    tag_162:\n        /* \"#utility.yul\":7333:7336   */\n      dup2\n        /* \"#utility.yul\":7326:7331   */\n      dup2\n        /* \"#utility.yul\":7323:7337   */\n      lt\n        /* \"#utility.yul\":7316:7436   */\n      iszero\n      tag_164\n      jumpi\n        /* \"#utility.yul\":7387:7426   */\n      tag_165\n        /* \"#utility.yul\":7424:7425   */\n      0x00\n        /* \"#utility.yul\":7417:7422   */\n      dup3\n        /* \"#utility.yul\":7387:7426   */\n      tag_67\n      jump\t// in\n    tag_165:\n        /* \"#utility.yul\":7360:7361   */\n      0x01\n        /* \"#utility.yul\":7353:7358   */\n      dup2\n        /* \"#utility.yul\":7349:7362   */\n      add\n        /* \"#utility.yul\":7340:7362   */\n      swap1\n      pop\n        /* \"#utility.yul\":7316:7436   */\n      jump(tag_162)\n    tag_164:\n        /* \"#utility.yul\":7256:7442   */\n      pop\n      pop\n      jump\t// out\n        /* \"#utility.yul\":7448:7991   */\n    tag_69:\n        /* \"#utility.yul\":7549:7551   */\n      0x1f\n        /* \"#utility.yul\":7544:7547   */\n      dup3\n        /* \"#utility.yul\":7541:7552   */\n      gt\n        /* \"#utility.yul\":7538:7984   */\n      iszero\n      tag_167\n      jumpi\n        /* \"#utility.yul\":7583:7621   */\n      tag_168\n        /* \"#utility.yul\":7615:7620   */\n      dup2\n        /* \"#utility.yul\":7583:7621   */\n      tag_58\n      jump\t// in\n    tag_168:\n        /* \"#utility.yul\":7667:7696   */\n      tag_169\n        /* \"#utility.yul\":7685:7695   */\n      dup5\n        /* \"#utility.yul\":7667:7696   */\n      tag_59\n      jump\t// in\n    tag_169:\n        /* \"#utility.yul\":7657:7665   */\n      dup2\n        /* \"#utility.yul\":7653:7697   */\n      add\n        /* \"#utility.yul\":7850:7852   */\n      0x20\n        /* \"#utility.yul\":7838:7848   */\n      dup6\n        /* \"#utility.yul\":7835:7853   */\n      lt\n        /* \"#utility.yul\":7832:7881   */\n      iszero\n      tag_170\n      jumpi\n        /* \"#utility.yul\":7871:7879   */\n      dup2\n        /* \"#utility.yul\":7856:7879   */\n      swap1\n      pop\n        /* \"#utility.yul\":7832:7881   */\n    tag_170:\n        /* \"#utility.yul\":7894:7974   */\n      tag_171\n        /* \"#utility.yul\":7950:7972   */\n      tag_172\n        /* \"#utility.yul\":7968:7971   */\n      dup6\n        /* \"#utility.yul\":7950:7972   */\n      tag_59\n      jump\t// in\n    tag_172:\n        /* \"#utility.yul\":7940:7948   */\n      dup4\n        /* \"#utility.yul\":7936:7973   */\n      add\n        /* \"#utility.yul\":7923:7934   */\n      dup3\n        /* \"#utility.yul\":7894:7974   */\n      tag_68\n      jump\t// in\n    tag_171:\n        /* \"#utility.yul\":7553:7984   */\n      pop\n      pop\n        /* \"#utility.yul\":7538:7984   */\n    tag_167:\n        /* \"#utility.yul\":7448:7991   */\n      pop\n      pop\n      pop\n      jump\t// out\n        /* \"#utility.yul\":7997:8114   */\n    tag_70:\n        /* \"#utility.yul\":8051:8059   */\n      0x00\n        /* \"#utility.yul\":8101:8106   */\n      dup3\n        /* \"#utility.yul\":8095:8099   */\n      dup3\n        /* \"#utility.yul\":8091:8107   */\n      shr\n        /* \"#utility.yul\":8070:8107   */\n      swap1\n      pop\n        /* \"#utility.yul\":7997:8114   */\n      swap3\n      swap2\n      pop\n      pop\n      jump\t// out\n        /* \"#utility.yul\":8120:8289   */\n    tag_71:\n        /* \"#utility.yul\":8164:8170   */\n      0x00\n        /* \"#utility.yul\":8197:8248   */\n      tag_175\n        /* \"#utility.yul\":8245:8246   */\n      0x00\n        /* \"#utility.yul\":8241:8247   */\n      not\n        /* \"#utility.yul\":8233:8238   */\n      dup5\n        /* \"#utility.yul\":8230:8231   */\n      0x08\n        /* \"#utility.yul\":8226:8239   */\n      mul\n        /* \"#utility.yul\":8197:8248   */\n      tag_70\n      jump\t// in\n    tag_175:\n        /* \"#utility.yul\":8193:8249   */\n      not\n        /* \"#utility.yul\":8278:8282   */\n      dup1\n        /* \"#utility.yul\":8272:8276   */\n      dup4\n        /* \"#utility.yul\":8268:8283   */\n      and\n        /* \"#utility.yul\":8258:8283   */\n      swap2\n      pop\n        /* \"#utility.yul\":8171:8289   */\n      pop\n        /* \"#utility.yul\":8120:8289   */\n      swap3\n      swap2\n      pop\n      pop\n      jump\t// out\n        /* \"#utility.yul\":8294:8589   */\n    tag_72:\n        /* \"#utility.yul\":8370:8374   */\n      0x00\n        /* \"#utility.yul\":8516:8545   */\n      tag_177\n        /* \"#utility.yul\":8541:8544   */\n      dup4\n        /* \"#utility.yul\":8535:8539   */\n      dup4\n        /* \"#utility.yul\":8516:8545   */\n      tag_71\n      jump\t// in\n    tag_177:\n        /* \"#utility.yul\":8508:8545   */\n      swap2\n      pop\n        /* \"#utility.yul\":8578:8581   */\n      dup3\n        /* \"#utility.yul\":8575:8576   */\n      0x02\n        /* \"#utility.yul\":8571:8582   */\n      mul\n        /* \"#utility.yul\":8565:8569   */\n      dup3\n        /* \"#utility.yul\":8562:8583   */\n      or\n        /* \"#utility.yul\":8554:8583   */\n      swap1\n      pop\n        /* \"#utility.yul\":8294:8589   */\n      swap3\n      swap2\n      pop\n      pop\n      jump\t// out\n        /* \"#utility.yul\":8594:9989   */\n    tag_33:\n        /* \"#utility.yul\":8711:8748   */\n      tag_179\n        /* \"#utility.yul\":8744:8747   */\n      dup3\n        /* \"#utility.yul\":8711:8748   */\n      tag_43\n      jump\t// in\n    tag_179:\n        /* \"#utility.yul\":8813:8831   */\n      0xffffffffffffffff\n        /* \"#utility.yul\":8805:8811   */\n      dup2\n        /* \"#utility.yul\":8802:8832   */\n      gt\n        /* \"#utility.yul\":8799:8855   */\n      iszero\n      tag_180\n      jumpi\n        /* \"#utility.yul\":8835:8853   */\n      tag_181\n      tag_50\n      jump\t// in\n    tag_181:\n        /* \"#utility.yul\":8799:8855   */\n    tag_180:\n        /* \"#utility.yul\":8879:8917   */\n      tag_182\n        /* \"#utility.yul\":8911:8915   */\n      dup3\n        /* \"#utility.yul\":8905:8916   */\n      sload\n        /* \"#utility.yul\":8879:8917   */\n      tag_19\n      jump\t// in\n    tag_182:\n        /* \"#utility.yul\":8964:9031   */\n      tag_183\n        /* \"#utility.yul\":9024:9030   */\n      dup3\n        /* \"#utility.yul\":9016:9022   */\n      dup3\n        /* \"#utility.yul\":9010:9014   */\n      dup6\n        /* \"#utility.yul\":8964:9031   */\n      tag_69\n      jump\t// in\n    tag_183:\n        /* \"#utility.yul\":9058:9059   */\n      0x00\n        /* \"#utility.yul\":9082:9086   */\n      0x20\n        /* \"#utility.yul\":9069:9086   */\n      swap1\n      pop\n        /* \"#utility.yul\":9114:9116   */\n      0x1f\n        /* \"#utility.yul\":9106:9112   */\n      dup4\n        /* \"#utility.yul\":9103:9117   */\n      gt\n        /* \"#utility.yul\":9131:9132   */\n      0x01\n        /* \"#utility.yul\":9126:9744   */\n      dup2\n      eq\n      tag_185\n      jumpi\n        /* \"#utility.yul\":9788:9789   */\n      0x00\n        /* \"#utility.yul\":9805:9811   */\n      dup5\n        /* \"#utility.yul\":9802:9879   */\n      iszero\n      tag_186\n      jumpi\n        /* \"#utility.yul\":9854:9863   */\n      dup3\n        /* \"#utility.yul\":9849:9852   */\n      dup8\n        /* \"#utility.yul\":9845:9864   */\n      add\n        /* \"#utility.yul\":9839:9865   */\n      mload\n        /* \"#utility.yul\":9830:9865   */\n      swap1\n      pop\n        /* \"#utility.yul\":9802:9879   */\n    tag_186:\n        /* \"#utility.yul\":9905:9972   */\n      tag_187\n        /* \"#utility.yul\":9965:9971   */\n      dup6\n        /* \"#utility.yul\":9958:9963   */\n      dup3\n        /* \"#utility.yul\":9905:9972   */\n      tag_72\n      jump\t// in\n    tag_187:\n        /* \"#utility.yul\":9899:9903   */\n      dup7\n        /* \"#utility.yul\":9892:9973   */\n      sstore\n        /* \"#utility.yul\":9761:9983   */\n      pop\n        /* \"#utility.yul\":9096:9983   */\n      jump(tag_184)\n        /* \"#utility.yul\":9126:9744   */\n    tag_185:\n        /* \"#utility.yul\":9178:9182   */\n      0x1f\n        /* \"#utility.yul\":9174:9183   */\n      not\n        /* \"#utility.yul\":9166:9172   */\n      dup5\n        /* \"#utility.yul\":9162:9184   */\n      and\n        /* \"#utility.yul\":9212:9249   */\n      tag_188\n        /* \"#utility.yul\":9244:9248   */\n      dup7\n        /* \"#utility.yul\":9212:9249   */\n      tag_58\n      jump\t// in\n    tag_188:\n        /* \"#utility.yul\":9271:9272   */\n      0x00\n        /* \"#utility.yul\":9285:9493   */\n    tag_189:\n        /* \"#utility.yul\":9299:9306   */\n      dup3\n        /* \"#utility.yul\":9296:9297   */\n      dup2\n        /* \"#utility.yul\":9293:9307   */\n      lt\n        /* \"#utility.yul\":9285:9493   */\n      iszero\n      tag_191\n      jumpi\n        /* \"#utility.yul\":9378:9387   */\n      dup5\n        /* \"#utility.yul\":9373:9376   */\n      dup10\n        /* \"#utility.yul\":9369:9388   */\n      add\n        /* \"#utility.yul\":9363:9389   */\n      mload\n        /* \"#utility.yul\":9355:9361   */\n      dup3\n        /* \"#utility.yul\":9348:9390   */\n      sstore\n        /* \"#utility.yul\":9429:9430   */\n      0x01\n        /* \"#utility.yul\":9421:9427   */\n      dup3\n        /* \"#utility.yul\":9417:9431   */\n      add\n        /* \"#utility.yul\":9407:9431   */\n      swap2\n      pop\n        /* \"#utility.yul\":9476:9478   */\n      0x20\n        /* \"#utility.yul\":9465:9474   */\n      dup6\n        /* \"#utility.yul\":9461:9479   */\n      add\n        /* \"#utility.yul\":9448:9479   */\n      swap5\n      pop\n        /* \"#utility.yul\":9322:9326   */\n      0x20\n        /* \"#utility.yul\":9319:9320   */\n      dup2\n        /* \"#utility.yul\":9315:9327   */\n      add\n        /* \"#utility.yul\":9310:9327   */\n      swap1\n      pop\n        /* \"#utility.yul\":9285:9493   */\n      jump(tag_189)\n    tag_191:\n        /* \"#utility.yul\":9521:9527   */\n      dup7\n        /* \"#utility.yul\":9512:9519   */\n      dup4\n        /* \"#utility.yul\":9509:9528   */\n      lt\n        /* \"#utility.yul\":9506:9685   */\n      iszero\n      tag_192\n      jumpi\n        /* \"#utility.yul\":9579:9588   */\n      dup5\n        /* \"#utility.yul\":9574:9577   */\n      dup10\n        /* \"#utility.yul\":9570:9589   */\n      add\n        /* \"#utility.yul\":9564:9590   */\n      mload\n        /* \"#utility.yul\":9622:9670   */\n      tag_193\n        /* \"#utility.yul\":9664:9668   */\n      0x1f\n        /* \"#utility.yul\":9656:9662   */\n      dup10\n        /* \"#utility.yul\":9652:9669   */\n      and\n        /* \"#utility.yul\":9641:9650   */\n      dup3\n        /* \"#utility.yul\":9622:9670   */\n      tag_71\n      jump\t// in\n    tag_193:\n        /* \"#utility.yul\":9614:9620   */\n      dup4\n        /* \"#utility.yul\":9607:9671   */\n      sstore\n        /* \"#utility.yul\":9529:9685   */\n      pop\n        /* \"#utility.yul\":9506:9685   */\n    tag_192:\n        /* \"#utility.yul\":9731:9732   */\n      0x01\n        /* \"#utility.yul\":9727:9728   */\n      0x02\n        /* \"#utility.yul\":9719:9725   */\n      dup9\n        /* \"#utility.yul\":9715:9729   */\n      mul\n        /* \"#utility.yul\":9711:9733   */\n      add\n        /* \"#utility.yul\":9705:9709   */\n      dup9\n        /* \"#utility.yul\":9698:9734   */\n      sstore\n        /* \"#utility.yul\":9133:9744   */\n      pop\n      pop\n      pop\n        /* \"#utility.yul\":9096:9983   */\n    tag_184:\n      pop\n        /* \"#utility.yul\":8686:9989   */\n      pop\n      pop\n      pop\n        /* \"#utility.yul\":8594:9989   */\n      pop\n      pop\n      jump\t// out\n        /* \"#utility.yul\":9995:10143   */\n    tag_73:\n        /* \"#utility.yul\":10097:10108   */\n      0x00\n        /* \"#utility.yul\":10134:10137   */\n      dup2\n        /* \"#utility.yul\":10119:10137   */\n      swap1\n      pop\n        /* \"#utility.yul\":9995:10143   */\n      swap3\n      swap2\n      pop\n      pop\n      jump\t// out\n        /* \"#utility.yul\":10149:10539   */\n    tag_74:\n        /* \"#utility.yul\":10255:10258   */\n      0x00\n        /* \"#utility.yul\":10283:10322   */\n      tag_196\n        /* \"#utility.yul\":10316:10321   */\n      dup3\n        /* \"#utility.yul\":10283:10322   */\n      tag_43\n      jump\t// in\n    tag_196:\n        /* \"#utility.yul\":10338:10427   */\n      tag_197\n        /* \"#utility.yul\":10420:10426   */\n      dup2\n        /* \"#utility.yul\":10415:10418   */\n      dup6\n        /* \"#utility.yul\":10338:10427   */\n      tag_73\n      jump\t// in\n    tag_197:\n        /* \"#utility.yul\":10331:10427   */\n      swap4\n      pop\n        /* \"#utility.yul\":10436:10501   */\n      tag_198\n        /* \"#utility.yul\":10494:10500   */\n      dup2\n        /* \"#utility.yul\":10489:10492   */\n      dup6\n        /* \"#utility.yul\":10482:10486   */\n      0x20\n        /* \"#utility.yul\":10475:10480   */\n      dup7\n        /* \"#utility.yul\":10471:10487   */\n      add\n        /* \"#utility.yul\":10436:10501   */\n      tag_45\n      jump\t// in\n    tag_198:\n        /* \"#utility.yul\":10526:10532   */\n      dup1\n        /* \"#utility.yul\":10521:10524   */\n      dup5\n        /* \"#utility.yul\":10517:10533   */\n      add\n        /* \"#utility.yul\":10510:10533   */\n      swap2\n      pop\n        /* \"#utility.yul\":10259:10539   */\n      pop\n        /* \"#utility.yul\":10149:10539   */\n      swap3\n      swap2\n      pop\n      pop\n      jump\t// out\n        /* \"#utility.yul\":10545:10741   */\n    tag_75:\n        /* \"#utility.yul\":10714:10734   */\n      0x66726f6d206a79277320636f6e74726163740000000000000000000000000000\n        /* \"#utility.yul\":10709:10712   */\n      dup2\n        /* \"#utility.yul\":10702:10735   */\n      mstore\n        /* \"#utility.yul\":10545:10741   */\n      pop\n      jump\t// out\n        /* \"#utility.yul\":10747:11289   */\n    tag_36:\n        /* \"#utility.yul\":10970:10973   */\n      0x00\n        /* \"#utility.yul\":10992:11087   */\n      tag_201\n        /* \"#utility.yul\":11083:11086   */\n      dup3\n        /* \"#utility.yul\":11074:11080   */\n      dup5\n        /* \"#utility.yul\":10992:11087   */\n      tag_74\n      jump\t// in\n    tag_201:\n        /* \"#utility.yul\":10985:11087   */\n      swap2\n      pop\n        /* \"#utility.yul\":11097:11235   */\n      tag_202\n        /* \"#utility.yul\":11231:11234   */\n      dup3\n        /* \"#utility.yul\":11097:11235   */\n      tag_75\n      jump\t// in\n    tag_202:\n        /* \"#utility.yul\":11260:11262   */\n      0x12\n        /* \"#utility.yul\":11255:11258   */\n      dup3\n        /* \"#utility.yul\":11251:11263   */\n      add\n        /* \"#utility.yul\":11244:11263   */\n      swap2\n      pop\n        /* \"#utility.yul\":11280:11283   */\n      dup2\n        /* \"#utility.yul\":11273:11283   */\n      swap1\n      pop\n        /* \"#utility.yul\":10747:11289   */\n      swap3\n      swap2\n      pop\n      pop\n      jump\t// out\n\n    auxdata: 0xa264697066735822122024659e0a2ce5f3ec93b4d6b7b183f91b531f3bec9c4723a79bf569101dd665b764736f6c634300081a0033\n}\n",
				"bytecode": {
					"linkReferences": {},
					"object": "60806040526040518060400160405280600b81526020017f68656c6c6f20776f726c640000000000000000000000000000000000000000008152505f90816100479190610293565b50348015610053575f80fd5b50610362565b5f81519050919050565b7f4e487b71000000000000000000000000000000000000000000000000000000005f52604160045260245ffd5b7f4e487b71000000000000000000000000000000000000000000000000000000005f52602260045260245ffd5b5f60028204905060018216806100d457607f821691505b6020821081036100e7576100e6610090565b5b50919050565b5f819050815f5260205f209050919050565b5f6020601f8301049050919050565b5f82821b905092915050565b5f600883026101497fffffffffffffffffffffffffffffffffffffffffffffffffffffffffffffffff8261010e565b610153868361010e565b95508019841693508086168417925050509392505050565b5f819050919050565b5f819050919050565b5f61019761019261018d8461016b565b610174565b61016b565b9050919050565b5f819050919050565b6101b08361017d565b6101c46101bc8261019e565b84845461011a565b825550505050565b5f90565b6101d86101cc565b6101e38184846101a7565b505050565b5b81811015610206576101fb5f826101d0565b6001810190506101e9565b5050565b601f82111561024b5761021c816100ed565b610225846100ff565b81016020851015610234578190505b610248610240856100ff565b8301826101e8565b50505b505050565b5f82821c905092915050565b5f61026b5f1984600802610250565b1980831691505092915050565b5f610283838361025c565b9150826002028217905092915050565b61029c82610059565b67ffffffffffffffff8111156102b5576102b4610063565b5b6102bf82546100bd565b6102ca82828561020a565b5f60209050601f8311600181146102fb575f84156102e9578287015190505b6102f38582610278565b86555061035a565b601f198416610309866100ed565b5f5b828110156103305784890151825560018201915060208501945060208101905061030b565b8683101561034d5784890151610349601f89168261025c565b8355505b6001600288020188555050505b505050505050565b6109238061036f5f395ff3fe608060405234801561000f575f80fd5b5060043610610034575f3560e01c806342257b31146100385780635d641b8914610068575b5f80fd5b610052600480360381019061004d9190610344565b610084565b60405161005f91906103f9565b60405180910390f35b610082600480360381019061007d9190610545565b610225565b005b60605f73ffffffffffffffffffffffffffffffffffffffff1660025f8481526020019081526020015f206002015f9054906101000a900473ffffffffffffffffffffffffffffffffffffffff1673ffffffffffffffffffffffffffffffffffffffff16036101835761017c5f80546100fb906105cc565b80601f0160208091040260200160405190810160405280929190818152602001828054610127906105cc565b80156101725780601f1061014957610100808354040283529160200191610172565b820191905f5260205f20905b81548152906001019060200180831161015557829003601f168201915b50505050506102d7565b9050610220565b60025f8381526020019081526020015f205f0180546101a1906105cc565b80601f01602080910402602001604051908101604052809291908181526020018280546101cd906105cc565b80156102185780601f106101ef57610100808354040283529160200191610218565b820191905f5260205f20905b8154815290600101906020018083116101fb57829003601f168201915b505050505090505b919050565b5f60405180606001604052808481526020018381526020013373ffffffffffffffffffffffffffffffffffffffff1681525090508060025f8481526020019081526020015f205f820151815f01908161027e9190610799565b50602082015181600101556040820151816002015f6101000a81548173ffffffffffffffffffffffffffffffffffffffff021916908373ffffffffffffffffffffffffffffffffffffffff160217905550905050505050565b6060816040516020016102ea91906108c8565b6040516020818303038152906040529050919050565b5f604051905090565b5f80fd5b5f80fd5b5f819050919050565b61032381610311565b811461032d575f80fd5b50565b5f8135905061033e8161031a565b92915050565b5f6020828403121561035957610358610309565b5b5f61036684828501610330565b91505092915050565b5f81519050919050565b5f82825260208201905092915050565b5f5b838110156103a657808201518184015260208101905061038b565b5f8484015250505050565b5f601f19601f8301169050919050565b5f6103cb8261036f565b6103d58185610379565b93506103e5818560208601610389565b6103ee816103b1565b840191505092915050565b5f6020820190508181035f83015261041181846103c1565b905092915050565b5f80fd5b5f80fd5b7f4e487b71000000000000000000000000000000000000000000000000000000005f52604160045260245ffd5b610457826103b1565b810181811067ffffffffffffffff8211171561047657610475610421565b5b80604052505050565b5f610488610300565b9050610494828261044e565b919050565b5f67ffffffffffffffff8211156104b3576104b2610421565b5b6104bc826103b1565b9050602081019050919050565b828183375f83830152505050565b5f6104e96104e484610499565b61047f565b9050828152602081018484840111156105055761050461041d565b5b6105108482856104c9565b509392505050565b5f82601f83011261052c5761052b610419565b5b813561053c8482602086016104d7565b91505092915050565b5f806040838503121561055b5761055a610309565b5b5f83013567ffffffffffffffff8111156105785761057761030d565b5b61058485828601610518565b925050602061059585828601610330565b9150509250929050565b7f4e487b71000000000000000000000000000000000000000000000000000000005f52602260045260245ffd5b5f60028204905060018216806105e357607f821691505b6020821081036105f6576105f561059f565b5b50919050565b5f819050815f5260205f209050919050565b5f6020601f8301049050919050565b5f82821b905092915050565b5f600883026106587fffffffffffffffffffffffffffffffffffffffffffffffffffffffffffffffff8261061d565b610662868361061d565b95508019841693508086168417925050509392505050565b5f819050919050565b5f61069d61069861069384610311565b61067a565b610311565b9050919050565b5f819050919050565b6106b683610683565b6106ca6106c2826106a4565b848454610629565b825550505050565b5f90565b6106de6106d2565b6106e98184846106ad565b505050565b5b8181101561070c576107015f826106d6565b6001810190506106ef565b5050565b601f82111561075157610722816105fc565b61072b8461060e565b8101602085101561073a578190505b61074e6107468561060e565b8301826106ee565b50505b505050565b5f82821c905092915050565b5f6107715f1984600802610756565b1980831691505092915050565b5f6107898383610762565b9150826002028217905092915050565b6107a28261036f565b67ffffffffffffffff8111156107bb576107ba610421565b5b6107c582546105cc565b6107d0828285610710565b5f60209050601f831160018114610801575f84156107ef578287015190505b6107f9858261077e565b865550610860565b601f19841661080f866105fc565b5f5b8281101561083657848901518255600182019150602085019450602081019050610811565b86831015610853578489015161084f601f891682610762565b8355505b6001600288020188555050505b505050505050565b5f81905092915050565b5f61087c8261036f565b6108868185610868565b9350610896818560208601610389565b80840191505092915050565b7f66726f6d206a79277320636f6e74726163740000000000000000000000000000815250565b5f6108d38284610872565b91506108de826108a2565b6012820191508190509291505056fea264697066735822122024659e0a2ce5f3ec93b4d6b7b183f91b531f3bec9c4723a79bf569101dd665b764736f6c634300081a0033",
					"opcodes": "PUSH1 0x80 PUSH1 0x40 MSTORE PUSH1 0x40 MLOAD DUP1 PUSH1 0x40 ADD PUSH1 0x40 MSTORE DUP1 PUSH1 0xB DUP2 MSTORE PUSH1 0x20 ADD PUSH32 0x68656C6C6F20776F726C64000000000000000000000000000000000000000000 DUP2 MSTORE POP PUSH0 SWAP1 DUP2 PUSH2 0x47 SWAP2 SWAP1 PUSH2 0x293 JUMP JUMPDEST POP CALLVALUE DUP1 ISZERO PUSH2 0x53 JUMPI PUSH0 DUP1 REVERT JUMPDEST POP PUSH2 0x362 JUMP JUMPDEST PUSH0 DUP2 MLOAD SWAP1 POP SWAP2 SWAP1 POP JUMP JUMPDEST PUSH32 0x4E487B7100000000000000000000000000000000000000000000000000000000 PUSH0 MSTORE PUSH1 0x41 PUSH1 0x4 MSTORE PUSH1 0x24 PUSH0 REVERT JUMPDEST PUSH32 0x4E487B7100000000000000000000000000000000000000000000000000000000 PUSH0 MSTORE PUSH1 0x22 PUSH1 0x4 MSTORE PUSH1 0x24 PUSH0 REVERT JUMPDEST PUSH0 PUSH1 0x2 DUP3 DIV SWAP1 POP PUSH1 0x1 DUP3 AND DUP1 PUSH2 0xD4 JUMPI PUSH1 0x7F DUP3 AND SWAP2 POP JUMPDEST PUSH1 0x20 DUP3 LT DUP2 SUB PUSH2 0xE7 JUMPI PUSH2 0xE6 PUSH2 0x90 JUMP JUMPDEST JUMPDEST POP SWAP2 SWAP1 POP JUMP JUMPDEST PUSH0 DUP2 SWAP1 POP DUP2 PUSH0 MSTORE PUSH1 0x20 PUSH0 KECCAK256 SWAP1 POP SWAP2 SWAP1 POP JUMP JUMPDEST PUSH0 PUSH1 0x20 PUSH1 0x1F DUP4 ADD DIV SWAP1 POP SWAP2 SWAP1 POP JUMP JUMPDEST PUSH0 DUP3 DUP3 SHL SWAP1 POP SWAP3 SWAP2 POP POP JUMP JUMPDEST PUSH0 PUSH1 0x8 DUP4 MUL PUSH2 0x149 PUSH32 0xFFFFFFFFFFFFFFFFFFFFFFFFFFFFFFFFFFFFFFFFFFFFFFFFFFFFFFFFFFFFFFFF DUP3 PUSH2 0x10E JUMP JUMPDEST PUSH2 0x153 DUP7 DUP4 PUSH2 0x10E JUMP JUMPDEST SWAP6 POP DUP1 NOT DUP5 AND SWAP4 POP DUP1 DUP7 AND DUP5 OR SWAP3 POP POP POP SWAP4 SWAP3 POP POP POP JUMP JUMPDEST PUSH0 DUP2 SWAP1 POP SWAP2 SWAP1 POP JUMP JUMPDEST PUSH0 DUP2 SWAP1 POP SWAP2 SWAP1 POP JUMP JUMPDEST PUSH0 PUSH2 0x197 PUSH2 0x192 PUSH2 0x18D DUP5 PUSH2 0x16B JUMP JUMPDEST PUSH2 0x174 JUMP JUMPDEST PUSH2 0x16B JUMP JUMPDEST SWAP1 POP SWAP2 SWAP1 POP JUMP JUMPDEST PUSH0 DUP2 SWAP1 POP SWAP2 SWAP1 POP JUMP JUMPDEST PUSH2 0x1B0 DUP4 PUSH2 0x17D JUMP JUMPDEST PUSH2 0x1C4 PUSH2 0x1BC DUP3 PUSH2 0x19E JUMP JUMPDEST DUP5 DUP5 SLOAD PUSH2 0x11A JUMP JUMPDEST DUP3 SSTORE POP POP POP POP JUMP JUMPDEST PUSH0 SWAP1 JUMP JUMPDEST PUSH2 0x1D8 PUSH2 0x1CC JUMP JUMPDEST PUSH2 0x1E3 DUP2 DUP5 DUP5 PUSH2 0x1A7 JUMP JUMPDEST POP POP POP JUMP JUMPDEST JUMPDEST DUP2 DUP2 LT ISZERO PUSH2 0x206 JUMPI PUSH2 0x1FB PUSH0 DUP3 PUSH2 0x1D0 JUMP JUMPDEST PUSH1 0x1 DUP2 ADD SWAP1 POP PUSH2 0x1E9 JUMP JUMPDEST POP POP JUMP JUMPDEST PUSH1 0x1F DUP3 GT ISZERO PUSH2 0x24B JUMPI PUSH2 0x21C DUP2 PUSH2 0xED JUMP JUMPDEST PUSH2 0x225 DUP5 PUSH2 0xFF JUMP JUMPDEST DUP2 ADD PUSH1 0x20 DUP6 LT ISZERO PUSH2 0x234 JUMPI DUP2 SWAP1 POP JUMPDEST PUSH2 0x248 PUSH2 0x240 DUP6 PUSH2 0xFF JUMP JUMPDEST DUP4 ADD DUP3 PUSH2 0x1E8 JUMP JUMPDEST POP POP JUMPDEST POP POP POP JUMP JUMPDEST PUSH0 DUP3 DUP3 SHR SWAP1 POP SWAP3 SWAP2 POP POP JUMP JUMPDEST PUSH0 PUSH2 0x26B PUSH0 NOT DUP5 PUSH1 0x8 MUL PUSH2 0x250 JUMP JUMPDEST NOT DUP1 DUP4 AND SWAP2 POP POP SWAP3 SWAP2 POP POP JUMP JUMPDEST PUSH0 PUSH2 0x283 DUP4 DUP4 PUSH2 0x25C JUMP JUMPDEST SWAP2 POP DUP3 PUSH1 0x2 MUL DUP3 OR SWAP1 POP SWAP3 SWAP2 POP POP JUMP JUMPDEST PUSH2 0x29C DUP3 PUSH2 0x59 JUMP JUMPDEST PUSH8 0xFFFFFFFFFFFFFFFF DUP2 GT ISZERO PUSH2 0x2B5 JUMPI PUSH2 0x2B4 PUSH2 0x63 JUMP JUMPDEST JUMPDEST PUSH2 0x2BF DUP3 SLOAD PUSH2 0xBD JUMP JUMPDEST PUSH2 0x2CA DUP3 DUP3 DUP6 PUSH2 0x20A JUMP JUMPDEST PUSH0 PUSH1 0x20 SWAP1 POP PUSH1 0x1F DUP4 GT PUSH1 0x1 DUP2 EQ PUSH2 0x2FB JUMPI PUSH0 DUP5 ISZERO PUSH2 0x2E9 JUMPI DUP3 DUP8 ADD MLOAD SWAP1 POP JUMPDEST PUSH2 0x2F3 DUP6 DUP3 PUSH2 0x278 JUMP JUMPDEST DUP7 SSTORE POP PUSH2 0x35A JUMP JUMPDEST PUSH1 0x1F NOT DUP5 AND PUSH2 0x309 DUP7 PUSH2 0xED JUMP JUMPDEST PUSH0 JUMPDEST DUP3 DUP2 LT ISZERO PUSH2 0x330 JUMPI DUP5 DUP10 ADD MLOAD DUP3 SSTORE PUSH1 0x1 DUP3 ADD SWAP2 POP PUSH1 0x20 DUP6 ADD SWAP5 POP PUSH1 0x20 DUP2 ADD SWAP1 POP PUSH2 0x30B JUMP JUMPDEST DUP7 DUP4 LT ISZERO PUSH2 0x34D JUMPI DUP5 DUP10 ADD MLOAD PUSH2 0x349 PUSH1 0x1F DUP10 AND DUP3 PUSH2 0x25C JUMP JUMPDEST DUP4 SSTORE POP JUMPDEST PUSH1 0x1 PUSH1 0x2 DUP9 MUL ADD DUP9 SSTORE POP POP POP JUMPDEST POP POP POP POP POP POP JUMP JUMPDEST PUSH2 0x923 DUP1 PUSH2 0x36F PUSH0 CODECOPY PUSH0 RETURN INVALID PUSH1 0x80 PUSH1 0x40 MSTORE CALLVALUE DUP1 ISZERO PUSH2 0xF JUMPI PUSH0 DUP1 REVERT JUMPDEST POP PUSH1 0x4 CALLDATASIZE LT PUSH2 0x34 JUMPI PUSH0 CALLDATALOAD PUSH1 0xE0 SHR DUP1 PUSH4 0x42257B31 EQ PUSH2 0x38 JUMPI DUP1 PUSH4 0x5D641B89 EQ PUSH2 0x68 JUMPI JUMPDEST PUSH0 DUP1 REVERT JUMPDEST PUSH2 0x52 PUSH1 0x4 DUP1 CALLDATASIZE SUB DUP2 ADD SWAP1 PUSH2 0x4D SWAP2 SWAP1 PUSH2 0x344 JUMP JUMPDEST PUSH2 0x84 JUMP JUMPDEST PUSH1 0x40 MLOAD PUSH2 0x5F SWAP2 SWAP1 PUSH2 0x3F9 JUMP JUMPDEST PUSH1 0x40 MLOAD DUP1 SWAP2 SUB SWAP1 RETURN JUMPDEST PUSH2 0x82 PUSH1 0x4 DUP1 CALLDATASIZE SUB DUP2 ADD SWAP1 PUSH2 0x7D SWAP2 SWAP1 PUSH2 0x545 JUMP JUMPDEST PUSH2 0x225 JUMP JUMPDEST STOP JUMPDEST PUSH1 0x60 PUSH0 PUSH20 0xFFFFFFFFFFFFFFFFFFFFFFFFFFFFFFFFFFFFFFFF AND PUSH1 0x2 PUSH0 DUP5 DUP2 MSTORE PUSH1 0x20 ADD SWAP1 DUP2 MSTORE PUSH1 0x20 ADD PUSH0 KECCAK256 PUSH1 0x2 ADD PUSH0 SWAP1 SLOAD SWAP1 PUSH2 0x100 EXP SWAP1 DIV PUSH20 0xFFFFFFFFFFFFFFFFFFFFFFFFFFFFFFFFFFFFFFFF AND PUSH20 0xFFFFFFFFFFFFFFFFFFFFFFFFFFFFFFFFFFFFFFFF AND SUB PUSH2 0x183 JUMPI PUSH2 0x17C PUSH0 DUP1 SLOAD PUSH2 0xFB SWAP1 PUSH2 0x5CC JUMP JUMPDEST DUP1 PUSH1 0x1F ADD PUSH1 0x20 DUP1 SWAP2 DIV MUL PUSH1 0x20 ADD PUSH1 0x40 MLOAD SWAP1 DUP2 ADD PUSH1 0x40 MSTORE DUP1 SWAP3 SWAP2 SWAP1 DUP2 DUP2 MSTORE PUSH1 0x20 ADD DUP3 DUP1 SLOAD PUSH2 0x127 SWAP1 PUSH2 0x5CC JUMP JUMPDEST DUP1 ISZERO PUSH2 0x172 JUMPI DUP1 PUSH1 0x1F LT PUSH2 0x149 JUMPI PUSH2 0x100 DUP1 DUP4 SLOAD DIV MUL DUP4 MSTORE SWAP2 PUSH1 0x20 ADD SWAP2 PUSH2 0x172 JUMP JUMPDEST DUP3 ADD SWAP2 SWAP1 PUSH0 MSTORE PUSH1 0x20 PUSH0 KECCAK256 SWAP1 JUMPDEST DUP2 SLOAD DUP2 MSTORE SWAP1 PUSH1 0x1 ADD SWAP1 PUSH1 0x20 ADD DUP1 DUP4 GT PUSH2 0x155 JUMPI DUP3 SWAP1 SUB PUSH1 0x1F AND DUP3 ADD SWAP2 JUMPDEST POP POP POP POP POP PUSH2 0x2D7 JUMP JUMPDEST SWAP1 POP PUSH2 0x220 JUMP JUMPDEST PUSH1 0x2 PUSH0 DUP4 DUP2 MSTORE PUSH1 0x20 ADD SWAP1 DUP2 MSTORE PUSH1 0x20 ADD PUSH0 KECCAK256 PUSH0 ADD DUP1 SLOAD PUSH2 0x1A1 SWAP1 PUSH2 0x5CC JUMP JUMPDEST DUP1 PUSH1 0x1F ADD PUSH1 0x20 DUP1 SWAP2 DIV MUL PUSH1 0x20 ADD PUSH1 0x40 MLOAD SWAP1 DUP2 ADD PUSH1 0x40 MSTORE DUP1 SWAP3 SWAP2 SWAP1 DUP2 DUP2 MSTORE PUSH1 0x20 ADD DUP3 DUP1 SLOAD PUSH2 0x1CD SWAP1 PUSH2 0x5CC JUMP JUMPDEST DUP1 ISZERO PUSH2 0x218 JUMPI DUP1 PUSH1 0x1F LT PUSH2 0x1EF JUMPI PUSH2 0x100 DUP1 DUP4 SLOAD DIV MUL DUP4 MSTORE SWAP2 PUSH1 0x20 ADD SWAP2 PUSH2 0x218 JUMP JUMPDEST DUP3 ADD SWAP2 SWAP1 PUSH0 MSTORE PUSH1 0x20 PUSH0 KECCAK256 SWAP1 JUMPDEST DUP2 SLOAD DUP2 MSTORE SWAP1 PUSH1 0x1 ADD SWAP1 PUSH1 0x20 ADD DUP1 DUP4 GT PUSH2 0x1FB JUMPI DUP3 SWAP1 SUB PUSH1 0x1F AND DUP3 ADD SWAP2 JUMPDEST POP POP POP POP POP SWAP1 POP JUMPDEST SWAP2 SWAP1 POP JUMP JUMPDEST PUSH0 PUSH1 0x40 MLOAD DUP1 PUSH1 0x60 ADD PUSH1 0x40 MSTORE DUP1 DUP5 DUP2 MSTORE PUSH1 0x20 ADD DUP4 DUP2 MSTORE PUSH1 0x20 ADD CALLER PUSH20 0xFFFFFFFFFFFFFFFFFFFFFFFFFFFFFFFFFFFFFFFF AND DUP2 MSTORE POP SWAP1 POP DUP1 PUSH1 0x2 PUSH0 DUP5 DUP2 MSTORE PUSH1 0x20 ADD SWAP1 DUP2 MSTORE PUSH1 0x20 ADD PUSH0 KECCAK256 PUSH0 DUP3 ADD MLOAD DUP2 PUSH0 ADD SWAP1 DUP2 PUSH2 0x27E SWAP2 SWAP1 PUSH2 0x799 JUMP JUMPDEST POP PUSH1 0x20 DUP3 ADD MLOAD DUP2 PUSH1 0x1 ADD SSTORE PUSH1 0x40 DUP3 ADD MLOAD DUP2 PUSH1 0x2 ADD PUSH0 PUSH2 0x100 EXP DUP2 SLOAD DUP2 PUSH20 0xFFFFFFFFFFFFFFFFFFFFFFFFFFFFFFFFFFFFFFFF MUL NOT AND SWAP1 DUP4 PUSH20 0xFFFFFFFFFFFFFFFFFFFFFFFFFFFFFFFFFFFFFFFF AND MUL OR SWAP1 SSTORE POP SWAP1 POP POP POP POP POP JUMP JUMPDEST PUSH1 0x60 DUP2 PUSH1 0x40 MLOAD PUSH1 0x20 ADD PUSH2 0x2EA SWAP2 SWAP1 PUSH2 0x8C8 JUMP JUMPDEST PUSH1 0x40 MLOAD PUSH1 0x20 DUP2 DUP4 SUB SUB DUP2 MSTORE SWAP1 PUSH1 0x40 MSTORE SWAP1 POP SWAP2 SWAP1 POP JUMP JUMPDEST PUSH0 PUSH1 0x40 MLOAD SWAP1 POP SWAP1 JUMP JUMPDEST PUSH0 DUP1 REVERT JUMPDEST PUSH0 DUP1 REVERT JUMPDEST PUSH0 DUP2 SWAP1 POP SWAP2 SWAP1 POP JUMP JUMPDEST PUSH2 0x323 DUP2 PUSH2 0x311 JUMP JUMPDEST DUP2 EQ PUSH2 0x32D JUMPI PUSH0 DUP1 REVERT JUMPDEST POP JUMP JUMPDEST PUSH0 DUP2 CALLDATALOAD SWAP1 POP PUSH2 0x33E DUP2 PUSH2 0x31A JUMP JUMPDEST SWAP3 SWAP2 POP POP JUMP JUMPDEST PUSH0 PUSH1 0x20 DUP3 DUP5 SUB SLT ISZERO PUSH2 0x359 JUMPI PUSH2 0x358 PUSH2 0x309 JUMP JUMPDEST JUMPDEST PUSH0 PUSH2 0x366 DUP5 DUP3 DUP6 ADD PUSH2 0x330 JUMP JUMPDEST SWAP2 POP POP SWAP3 SWAP2 POP POP JUMP JUMPDEST PUSH0 DUP2 MLOAD SWAP1 POP SWAP2 SWAP1 POP JUMP JUMPDEST PUSH0 DUP3 DUP3 MSTORE PUSH1 0x20 DUP3 ADD SWAP1 POP SWAP3 SWAP2 POP POP JUMP JUMPDEST PUSH0 JUMPDEST DUP4 DUP2 LT ISZERO PUSH2 0x3A6 JUMPI DUP1 DUP3 ADD MLOAD DUP2 DUP5 ADD MSTORE PUSH1 0x20 DUP2 ADD SWAP1 POP PUSH2 0x38B JUMP JUMPDEST PUSH0 DUP5 DUP5 ADD MSTORE POP POP POP POP JUMP JUMPDEST PUSH0 PUSH1 0x1F NOT PUSH1 0x1F DUP4 ADD AND SWAP1 POP SWAP2 SWAP1 POP JUMP JUMPDEST PUSH0 PUSH2 0x3CB DUP3 PUSH2 0x36F JUMP JUMPDEST PUSH2 0x3D5 DUP2 DUP6 PUSH2 0x379 JUMP JUMPDEST SWAP4 POP PUSH2 0x3E5 DUP2 DUP6 PUSH1 0x20 DUP7 ADD PUSH2 0x389 JUMP JUMPDEST PUSH2 0x3EE DUP2 PUSH2 0x3B1 JUMP JUMPDEST DUP5 ADD SWAP2 POP POP SWAP3 SWAP2 POP POP JUMP JUMPDEST PUSH0 PUSH1 0x20 DUP3 ADD SWAP1 POP DUP2 DUP2 SUB PUSH0 DUP4 ADD MSTORE PUSH2 0x411 DUP2 DUP5 PUSH2 0x3C1 JUMP JUMPDEST SWAP1 POP SWAP3 SWAP2 POP POP JUMP JUMPDEST PUSH0 DUP1 REVERT JUMPDEST PUSH0 DUP1 REVERT JUMPDEST PUSH32 0x4E487B7100000000000000000000000000000000000000000000000000000000 PUSH0 MSTORE PUSH1 0x41 PUSH1 0x4 MSTORE PUSH1 0x24 PUSH0 REVERT JUMPDEST PUSH2 0x457 DUP3 PUSH2 0x3B1 JUMP JUMPDEST DUP2 ADD DUP2 DUP2 LT PUSH8 0xFFFFFFFFFFFFFFFF DUP3 GT OR ISZERO PUSH2 0x476 JUMPI PUSH2 0x475 PUSH2 0x421 JUMP JUMPDEST JUMPDEST DUP1 PUSH1 0x40 MSTORE POP POP POP JUMP JUMPDEST PUSH0 PUSH2 0x488 PUSH2 0x300 JUMP JUMPDEST SWAP1 POP PUSH2 0x494 DUP3 DUP3 PUSH2 0x44E JUMP JUMPDEST SWAP2 SWAP1 POP JUMP JUMPDEST PUSH0 PUSH8 0xFFFFFFFFFFFFFFFF DUP3 GT ISZERO PUSH2 0x4B3 JUMPI PUSH2 0x4B2 PUSH2 0x421 JUMP JUMPDEST JUMPDEST PUSH2 0x4BC DUP3 PUSH2 0x3B1 JUMP JUMPDEST SWAP1 POP PUSH1 0x20 DUP2 ADD SWAP1 POP SWAP2 SWAP1 POP JUMP JUMPDEST DUP3 DUP2 DUP4 CALLDATACOPY PUSH0 DUP4 DUP4 ADD MSTORE POP POP POP JUMP JUMPDEST PUSH0 PUSH2 0x4E9 PUSH2 0x4E4 DUP5 PUSH2 0x499 JUMP JUMPDEST PUSH2 0x47F JUMP JUMPDEST SWAP1 POP DUP3 DUP2 MSTORE PUSH1 0x20 DUP2 ADD DUP5 DUP5 DUP5 ADD GT ISZERO PUSH2 0x505 JUMPI PUSH2 0x504 PUSH2 0x41D JUMP JUMPDEST JUMPDEST PUSH2 0x510 DUP5 DUP3 DUP6 PUSH2 0x4C9 JUMP JUMPDEST POP SWAP4 SWAP3 POP POP POP JUMP JUMPDEST PUSH0 DUP3 PUSH1 0x1F DUP4 ADD SLT PUSH2 0x52C JUMPI PUSH2 0x52B PUSH2 0x419 JUMP JUMPDEST JUMPDEST DUP2 CALLDATALOAD PUSH2 0x53C DUP5 DUP3 PUSH1 0x20 DUP7 ADD PUSH2 0x4D7 JUMP JUMPDEST SWAP2 POP POP SWAP3 SWAP2 POP POP JUMP JUMPDEST PUSH0 DUP1 PUSH1 0x40 DUP4 DUP6 SUB SLT ISZERO PUSH2 0x55B JUMPI PUSH2 0x55A PUSH2 0x309 JUMP JUMPDEST JUMPDEST PUSH0 DUP4 ADD CALLDATALOAD PUSH8 0xFFFFFFFFFFFFFFFF DUP2 GT ISZERO PUSH2 0x578 JUMPI PUSH2 0x577 PUSH2 0x30D JUMP JUMPDEST JUMPDEST PUSH2 0x584 DUP6 DUP3 DUP7 ADD PUSH2 0x518 JUMP JUMPDEST SWAP3 POP POP PUSH1 0x20 PUSH2 0x595 DUP6 DUP3 DUP7 ADD PUSH2 0x330 JUMP JUMPDEST SWAP2 POP POP SWAP3 POP SWAP3 SWAP1 POP JUMP JUMPDEST PUSH32 0x4E487B7100000000000000000000000000000000000000000000000000000000 PUSH0 MSTORE PUSH1 0x22 PUSH1 0x4 MSTORE PUSH1 0x24 PUSH0 REVERT JUMPDEST PUSH0 PUSH1 0x2 DUP3 DIV SWAP1 POP PUSH1 0x1 DUP3 AND DUP1 PUSH2 0x5E3 JUMPI PUSH1 0x7F DUP3 AND SWAP2 POP JUMPDEST PUSH1 0x20 DUP3 LT DUP2 SUB PUSH2 0x5F6 JUMPI PUSH2 0x5F5 PUSH2 0x59F JUMP JUMPDEST JUMPDEST POP SWAP2 SWAP1 POP JUMP JUMPDEST PUSH0 DUP2 SWAP1 POP DUP2 PUSH0 MSTORE PUSH1 0x20 PUSH0 KECCAK256 SWAP1 POP SWAP2 SWAP1 POP JUMP JUMPDEST PUSH0 PUSH1 0x20 PUSH1 0x1F DUP4 ADD DIV SWAP1 POP SWAP2 SWAP1 POP JUMP JUMPDEST PUSH0 DUP3 DUP3 SHL SWAP1 POP SWAP3 SWAP2 POP POP JUMP JUMPDEST PUSH0 PUSH1 0x8 DUP4 MUL PUSH2 0x658 PUSH32 0xFFFFFFFFFFFFFFFFFFFFFFFFFFFFFFFFFFFFFFFFFFFFFFFFFFFFFFFFFFFFFFFF DUP3 PUSH2 0x61D JUMP JUMPDEST PUSH2 0x662 DUP7 DUP4 PUSH2 0x61D JUMP JUMPDEST SWAP6 POP DUP1 NOT DUP5 AND SWAP4 POP DUP1 DUP7 AND DUP5 OR SWAP3 POP POP POP SWAP4 SWAP3 POP POP POP JUMP JUMPDEST PUSH0 DUP2 SWAP1 POP SWAP2 SWAP1 POP JUMP JUMPDEST PUSH0 PUSH2 0x69D PUSH2 0x698 PUSH2 0x693 DUP5 PUSH2 0x311 JUMP JUMPDEST PUSH2 0x67A JUMP JUMPDEST PUSH2 0x311 JUMP JUMPDEST SWAP1 POP SWAP2 SWAP1 POP JUMP JUMPDEST PUSH0 DUP2 SWAP1 POP SWAP2 SWAP1 POP JUMP JUMPDEST PUSH2 0x6B6 DUP4 PUSH2 0x683 JUMP JUMPDEST PUSH2 0x6CA PUSH2 0x6C2 DUP3 PUSH2 0x6A4 JUMP JUMPDEST DUP5 DUP5 SLOAD PUSH2 0x629 JUMP JUMPDEST DUP3 SSTORE POP POP POP POP JUMP JUMPDEST PUSH0 SWAP1 JUMP JUMPDEST PUSH2 0x6DE PUSH2 0x6D2 JUMP JUMPDEST PUSH2 0x6E9 DUP2 DUP5 DUP5 PUSH2 0x6AD JUMP JUMPDEST POP POP POP JUMP JUMPDEST JUMPDEST DUP2 DUP2 LT ISZERO PUSH2 0x70C JUMPI PUSH2 0x701 PUSH0 DUP3 PUSH2 0x6D6 JUMP JUMPDEST PUSH1 0x1 DUP2 ADD SWAP1 POP PUSH2 0x6EF JUMP JUMPDEST POP POP JUMP JUMPDEST PUSH1 0x1F DUP3 GT ISZERO PUSH2 0x751 JUMPI PUSH2 0x722 DUP2 PUSH2 0x5FC JUMP JUMPDEST PUSH2 0x72B DUP5 PUSH2 0x60E JUMP JUMPDEST DUP2 ADD PUSH1 0x20 DUP6 LT ISZERO PUSH2 0x73A JUMPI DUP2 SWAP1 POP JUMPDEST PUSH2 0x74E PUSH2 0x746 DUP6 PUSH2 0x60E JUMP JUMPDEST DUP4 ADD DUP3 PUSH2 0x6EE JUMP JUMPDEST POP POP JUMPDEST POP POP POP JUMP JUMPDEST PUSH0 DUP3 DUP3 SHR SWAP1 POP SWAP3 SWAP2 POP POP JUMP JUMPDEST PUSH0 PUSH2 0x771 PUSH0 NOT DUP5 PUSH1 0x8 MUL PUSH2 0x756 JUMP JUMPDEST NOT DUP1 DUP4 AND SWAP2 POP POP SWAP3 SWAP2 POP POP JUMP JUMPDEST PUSH0 PUSH2 0x789 DUP4 DUP4 PUSH2 0x762 JUMP JUMPDEST SWAP2 POP DUP3 PUSH1 0x2 MUL DUP3 OR SWAP1 POP SWAP3 SWAP2 POP POP JUMP JUMPDEST PUSH2 0x7A2 DUP3 PUSH2 0x36F JUMP JUMPDEST PUSH8 0xFFFFFFFFFFFFFFFF DUP2 GT ISZERO PUSH2 0x7BB JUMPI PUSH2 0x7BA PUSH2 0x421 JUMP JUMPDEST JUMPDEST PUSH2 0x7C5 DUP3 SLOAD PUSH2 0x5CC JUMP JUMPDEST PUSH2 0x7D0 DUP3 DUP3 DUP6 PUSH2 0x710 JUMP JUMPDEST PUSH0 PUSH1 0x20 SWAP1 POP PUSH1 0x1F DUP4 GT PUSH1 0x1 DUP2 EQ PUSH2 0x801 JUMPI PUSH0 DUP5 ISZERO PUSH2 0x7EF JUMPI DUP3 DUP8 ADD MLOAD SWAP1 POP JUMPDEST PUSH2 0x7F9 DUP6 DUP3 PUSH2 0x77E JUMP JUMPDEST DUP7 SSTORE POP PUSH2 0x860 JUMP JUMPDEST PUSH1 0x1F NOT DUP5 AND PUSH2 0x80F DUP7 PUSH2 0x5FC JUMP JUMPDEST PUSH0 JUMPDEST DUP3 DUP2 LT ISZERO PUSH2 0x836 JUMPI DUP5 DUP10 ADD MLOAD DUP3 SSTORE PUSH1 0x1 DUP3 ADD SWAP2 POP PUSH1 0x20 DUP6 ADD SWAP5 POP PUSH1 0x20 DUP2 ADD SWAP1 POP PUSH2 0x811 JUMP JUMPDEST DUP7 DUP4 LT ISZERO PUSH2 0x853 JUMPI DUP5 DUP10 ADD MLOAD PUSH2 0x84F PUSH1 0x1F DUP10 AND DUP3 PUSH2 0x762 JUMP JUMPDEST DUP4 SSTORE POP JUMPDEST PUSH1 0x1 PUSH1 0x2 DUP9 MUL ADD DUP9 SSTORE POP POP POP JUMPDEST POP POP POP POP POP POP JUMP JUMPDEST PUSH0 DUP2 SWAP1 POP SWAP3 SWAP2 POP POP JUMP JUMPDEST PUSH0 PUSH2 0x87C DUP3 PUSH2 0x36F JUMP JUMPDEST PUSH2 0x886 DUP2 DUP6 PUSH2 0x868 JUMP JUMPDEST SWAP4 POP PUSH2 0x896 DUP2 DUP6 PUSH1 0x20 DUP7 ADD PUSH2 0x389 JUMP JUMPDEST DUP1 DUP5 ADD SWAP2 POP POP SWAP3 SWAP2 POP POP JUMP JUMPDEST PUSH32 0x66726F6D206A79277320636F6E74726163740000000000000000000000000000 DUP2 MSTORE POP JUMP JUMPDEST PUSH0 PUSH2 0x8D3 DUP3 DUP5 PUSH2 0x872 JUMP JUMPDEST SWAP2 POP PUSH2 0x8DE DUP3 PUSH2 0x8A2 JUMP JUMPDEST PUSH1 0x12 DUP3 ADD SWAP2 POP DUP2 SWAP1 POP SWAP3 SWAP2 POP POP JUMP INVALID LOG2 PUSH5 0x6970667358 0x22 SLT KECCAK256 0x24 PUSH6 0x9E0A2CE5F3EC SWAP4 0xB4 0xD6 0xB7 0xB1 DUP4 0xF9 SHL MSTORE8 0x1F EXTCODESIZE 0xEC SWAP13 SELFBALANCE 0x23 0xA7 SWAP12 CREATE2 PUSH10 0x101DD665B764736F6C63 NUMBER STOP ADDMOD BYTE STOP CALLER "
				},
				"gasEstimates": {
					"creation": {
						"codeDepositCost": "467800",
						"executionCost": "infinite",
						"totalCost": "infinite"
					},
					"external": {
						"sayHello(uint256)": "infinite",
						"setHelloWorld(string,uint256)": "infinite"
					},
					"internal": {
						"addinfo(string memory)": "infinite"
					}
				},
				"methodIdentifiers": {
					"sayHello(uint256)": "42257b31",
					"setHelloWorld(string,uint256)": "5d641b89"
				}
			},
			"storageLayout": {
				"storage": [
					{
						"astId": 81,
						"contract": "test1.sol:HelloWorld",
						"label": "strVar",
						"offset": 0,
						"slot": "0",
						"type": "t_string_storage"
					},
					{
						"astId": 92,
						"contract": "test1.sol:HelloWorld",
						"label": "infos",
						"offset": 0,
						"slot": "1",
						"type": "t_array(t_struct(Info)88_storage)dyn_storage"
					},
					{
						"astId": 97,
						"contract": "test1.sol:HelloWorld",
						"label": "infoMapping",
						"offset": 0,
						"slot": "2",
						"type": "t_mapping(t_uint256,t_struct(Info)88_storage)"
					}
				],
				"types": {
					"t_address": {
						"encoding": "inplace",
						"label": "address",
						"numberOfBytes": "20"
					},
					"t_array(t_struct(Info)88_storage)dyn_storage": {
						"base": "t_struct(Info)88_storage",
						"encoding": "dynamic_array",
						"label": "struct HelloWorld.Info[]",
						"numberOfBytes": "32"
					},
					"t_mapping(t_uint256,t_struct(Info)88_storage)": {
						"encoding": "mapping",
						"key": "t_uint256",
						"label": "mapping(uint256 => struct HelloWorld.Info)",
						"numberOfBytes": "32",
						"value": "t_struct(Info)88_storage"
					},
					"t_string_storage": {
						"encoding": "bytes",
						"label": "string",
						"numberOfBytes": "32"
					},
					"t_struct(Info)88_storage": {
						"encoding": "inplace",
						"label": "struct HelloWorld.Info",
						"members": [
							{
								"astId": 83,
								"contract": "test1.sol:HelloWorld",
								"label": "phrase",
								"offset": 0,
								"slot": "0",
								"type": "t_string_storage"
							},
							{
								"astId": 85,
								"contract": "test1.sol:HelloWorld",
								"label": "id",
								"offset": 0,
								"slot": "1",
								"type": "t_uint256"
							},
							{
								"astId": 87,
								"contract": "test1.sol:HelloWorld",
								"label": "addr",
								"offset": 0,
								"slot": "2",
								"type": "t_address"
							}
						],
						"numberOfBytes": "96"
					},
					"t_uint256": {
						"encoding": "inplace",
						"label": "uint256",
						"numberOfBytes": "32"
					}
				}
			},
			"userdoc": {
				"kind": "user",
				"methods": {},
				"version": 1
			}
		}
	}
}